:100000000C946F140C9497140C9497140C94172A56
:100010000C9497140C9497140C9497140C949714B4
:100020000C9497140C9497140C9497140C949714A4
:100030000C9497140C9497140C9497140C94971494
:100040000C94CD290C9497140C9497140C94971439
:100050000C9497140C94EE2A0C9497140C94971407
:100060000C9497140C94971400090F00FD0902E7F3
:1000700004AF20FF000CFE0B000909120900003E2E
:10008000001C008880C980F780C98088801C003EE1
:100090000009091209000008001400FF80A2804135
:1000A00000A280FF8014000800090912090000085E
:1000B000001C0008004900FF80490008001C0008DF
:1000C0000009091209000008001C001C006B00FF59
:1000D000806B001C001C00080009091209000008C0
:1000E000001C001C006B00FF806B001C001C000843
:1000F0000009091209000008001C001C006B00FF29
:10010000806B001C001C000800090912090000088F
:100110000008001C003E00FF803E001C0008000894
:10012000000909120900000800140014006300808F
:10013000806300140014000800FF09091209000080
:10014000080008001400F780410022004900550013
:100150006300090A140900007F00F780F780E3803C
:1001600000008080C180C9809C807F00090912093D
:100170000000080008001C00E380630022003E002D
:100180007700410009091209000008000800140066
:10019000EB805D002A0022007F004100090912095E
:1001A0000000080008001400EB805D002A00220017
:1001B0007F0041000909120900000800080014002E
:1001C000EB805D002A0022007F004100090912092E
:1001D0000000080008001400F780490036002A00DB
:1001E0007F00410008070709000218182CC72E3CA1
:1001F0006608090909000018DBFF7E187EFFDB187E
:1002000008090909000018DBFF662466FFDB1809EE
:100210000912090000080049002A001C00FF801C88
:10022000002A0049000800090912090000080049D5
:10023000003E003E00FF803E003E004900080009ED
:1002400009120900000800490036003E00D5803E32
:10025000003600490008000909120900000800885A
:10026000806B003E001C003E006B00888008000987
:1002700009120900002200140094807F001C007FF6
:10028000009480140022000909120900002200369F
:1002900000FF807F003E007F00FF803600220009C3
:1002A00009120900002A002A00DD803E00FF803E7E
:1002B00000DD802A002A000909120900002A002A0C
:1002C00000DD802A00FF802A00DD802A002A000944
:1002D0000B160900001C001C00C980C98022000800
:1002E000002200C980C9801C001C00090B160900EF
:1002F000001C001C00C980C9803E0014003E00C9DB
:1003000080C9801C001C00090B160900001C001C81
:1003100000C980C9803E001C003E00C980C9801C05
:10032000001C00090B160900001C001400C980C93C
:10033000803E0014007F00AA80C9801C001C0008B9
:1003400009090900001818DBFF24247EE742FFFF9B
:10035000FF08090909000018CBBD6E1876BDD31837
:10036000090C1809000008002A005D00AA806B0033
:10037000DD80DD806B00AA805D002A000800090C8A
:100380001809000008002A005D00AA806B00DD80CB
:10039000DD806B00AA805D002A000800090C1809A6
:1003A000000008002A005D00AA806B00DD80DD806F
:1003B0006B00AA805D002A000800090912090000EC
:1003C000080049002A001400EB8014002A004900AC
:1003D0000800090912090000080049002A00140059
:1003E000EB8014002A0049000800080909090000F0
:1003F00018DBCB3C183CD3DB1809091209000008B4
:100400000049002A000000EB8000002A0049000893
:1004100000090912090000080049002A001C00FF19
:10042000801C002A0049000800FF0908100900018B
:100430003E004300818081808180818043003E00B6
:10044000FF090912090000FE008200838083808377
:10045000808380FF803F803F800909120900003FB0
:10046000803F80FF8083808380838083808200FE42
:1004700000080808090000FE8383838383FF7F0848
:1004800008080900007FFF8383838383FEFFFFFF4B
:1004900009091209000008001C0008004100E3805F
:1004A000410008001C000800FF010A0A090400803E
:1004B000808080808080808080020A0A090300C0DA
:1004C000C0C0C0C0C0C0C0C0C0030A0A090300E069
:1004D000E0E0E0E0E0E0E0E0E004060609030570AB
:1004E00080E0F0F06004060609030560F0F070108B
:1004F000E009060C09000573808400E700F780F727
:1005000080630009060C0900056300F780F780731B
:10051000801080E700FFFF070A0A090100047EE45B
:10052000E4E47C04646830050A0A09020070F8F803
:1005300070202000207020050A0A09020050F8F8F7
:10054000702020002070200909120900006300F7C4
:1005500080FF80FF807F003E001C0008000800092B
:1005600009120900007000F800FC007E003F807E48
:1005700000FC00F8007000090C1809000008007465
:100580008095000E0004006B00F780FF807F003E26
:10059000001C000800090C18090000100029005276
:1005A000009C00200058007C003C00FE00FE80FF04
:1005B000007E00FFFFFFFFFFFFFFFFFFFFFFFFFFCA
:1005C000FF0909120900007F00F780E780F780F734
:1005D00080F780F780E3807F000909120900007F1F
:1005E00000E380DD80FD80FB80F780ED80C1807FAF
:1005F000000909120900007F00E380DD80FD80F31F
:1006000080FD80DD80E3807F000909120900007F02
:1006100000F380EB80DB80C180FB80FB80FB807F70
:10062000000909120900007F00C180DF80DF80C35C
:1006300080FD80FD80C3807F000909120900007FD2
:1006400000E180DF80DF80C380DD80DD80E3807FAC
:10065000000909120900007F00C180FD80FB80FBBA
:1006600080F780F780F7807F000909120900007F7A
:1006700000E380DD80DD80E380DD80DD80E3807F5E
:10068000000909120900007F00E180DD80DD80E1C2
:1006900080FD80FD80E3807F000909120900007F52
:1006A00000DB80D580D580D580D580D580DB807F6C
:1006B000000909120900007F0080808880988088E6
:1006C000808880888080807F000909120900007F6F
:1006D00000808098808480848088809C8080807F57
:1006E000000909120900007F0080809880848088BA
:1006F000808480988080807F000909120900007F33
:1007000000808088809880A880BC80888080807FDE
:10071000000909120900007F0080809C8090809869
:10072000808480988080807F000909120900007F02
:100730000080808C80908098809480888080807FEA
:10074000000909120900007F0080809C8084808855
:10075000808880888080807F000909120900007FDE
:100760000080808880948088809480888080807FCA
:10077000000909120900007F008080888094808C25
:10078000808480888080807F000909120900007FB2
:10079000008080A480AA80AA80AA80A48080807F14
:1007A000000909120900007F00F780E780F780F751
:1007B00080F780F780F7807F000909120900007F29
:1007C00000E380DD80FD80FB80F780EF80C1807FCB
:1007D000000909120900007F00E380DD80FD80F33D
:1007E00080FD80DD80E3807F000909120900007F21
:1007F00000F380EB80DB80C180FB80FB80FB807F8F
:10080000000909120900007F00C180DF80DF80C37A
:1008100080FD80FD80C3807F000909120900007FF0
:1008200000E180DF80DF80C380DD80DD80E3807FCA
:10083000000909120900007F00C180FD80FB80FBD8
:1008400080F780F780F7807F000909120900007F98
:1008500000E380DD80DD80E380DD80DD80E3807F7C
:10086000000909120900007F00E180DD80DD80E1E0
:1008700080FD80FD80E3807F000909120900007F70
:1008800000DB80D580D580D580D580D580DB807F8A
:100890000007080809010130180CFEFE0C1830FF93
:1008A000FFFF070505090101E0FA3E0E1E080707D4
:1008B000090101080CE6FFE60C080705050901011E
:1008C0001E0E3EFAE009070E09000030001C001F52
:1008D00000FF801F001C0030000909120900001CE5
:1008E000001E000F00FF80FF80FF800F001E001C15
:1008F0000009050A09000102000300FF800300024D
:100900000009070E09000004000600FF00FF80FF39
:10091000000600040009050A0900010200B700B73B
:1009200080B700020009050A0900010200AB00AB14
:1009300080AB00020009050A0900010200FF00FF68
:1009400080FF000200090810090001800070004EBD
:100950000021801F803E00700080000908100900FF
:1009600001800070003E001F8021804E00700080DA
:1009700000090810090001800070003E001F801F60
:10098000803E007000800009070E09000084008688
:1009900000FF00FF807F000600040009070E090029
:1009A00000040006007F00FF80FF00860084000630
:1009B00009090902001010F8F8FCF8F810100809ED
:1009C000090900010404FEFEFFFEFE0404090912E9
:1009D00009000018001C001600F3008180F30016C7
:1009E000001C00180009091209000018001C001A58
:1009F00000F900C080F9001A001C00180009091253
:100A0000090000008001803E8040808180F300EE7C
:100A1000003C00380009091209000038003C00EED3
:100A200000F300818040803E800180008008090939
:100A3000090001101814F281F3761C18080909093D
:100A40000001181C76F381F214181009070E090032
:100A5000020400FA00810040808180FB000600FF54
:100A600009070E0900020600FB008180408081001A
:100A7000FA0004000909120900011C007F00FB8034
:100A8000018000800180FB807F001C0009050A09AD
:100A90000003D2002B007F802B00D200090912092D
:100AA0000000100038005C00EC0074003C00028084
:100AB0000180038009050A090002F2007B0007801B
:100AC0007B00F20009091209000003800180028006
:100AD0003C007400EC005C003800100009091209A9
:100AE0000000100018001C00FC007C003C0002808C
:100AF0000180038009050A090002F2007B007F8063
:100B00007B00F200090912090000038001800280C5
:100B10003C007C00FC001C001800100009070E09B6
:100B20000001030003007100FF8071000300030057
:100B300009070E090001020073007900FF807900A7
:100B40007300020009050A090002F2007B003F80E1
:100B50007B00F20009070E090001E200F2007B00B1
:100B60003F807B00F200E20009070E09000114003B
:100B70000A00FD000080FD000A001400FF070707BF
:100B800009010082848890A0C0FE090A14090000AF
:100B900008000800140014002A002A0055005D0017
:100BA0008080FF80070A0A09010010101010101041
:100BB000101010FE0707070901013E40848A844097
:100BC0003E070707090101F80442A24204F8050C98
:100BD0000C0902FF7088881010202040408080702F
:100BE000050C0C0902FF7088884040202010100876
:100BF0000870070808090100829254442828101040
:100C0000080A0A0900FF808F90505050502F202072
:100C1000080A0A0900FF01F1090A0A0A0AF4040491
:100C2000030A0A09030040404040E0404040404081
:100C3000FFFFFFFFFF09091209000008001400224E
:100C400000410088804100220014000800070808C5
:100C5000090100101028284454928207070709014F
:100C600001929292929254380707070901010202F9
:100C700002120202FE070707090101FE8080908030
:100C80008080080B0B0900FFC1636355554955551A
:100C90006363C1080B0B0901FF83C6C6AAAA92AA07
:100CA000AAC6C683090B160900FFC1806300630052
:100CB0005500550049005500550063006300C18090
:100CC000090D1A0900FE08000800080008000800C5
:100CD0000800080008000800080008000800FF805D
:100CE000090D1A0900FEFF8008000800080008002E
:100CF00008000800080008000800080008000800B4
:100D00000707070901012828EE28EE28280707070A
:100D1000090101282828EE282828070303090103D0
:100D200040BE4009050A09000280008000FF808063
:100D300000800009050A09000200800080FF800091
:100D4000800080050A0A090200205020202020206F
:100D50002020F805090909020020205050F85050C1
:100D6000202007090909010010101028C6281010BA
:100D70001008090909000008080814E31408080805
:100D800008090909010010101028C72810101008C0
:100D900007070900017F4141C141417F0807070959
:100DA0000101FE8282838282FE050C0C0902FFF89B
:100DB000A0A0A0A0A0A0A0A0A0A0F8050C0C0902D3
:100DC000FFF828282828282828282828F8030A0A8D
:100DD00009030020204040808040402020030A0A70
:100DE00009030080804040202040408080060A0A9D
:100DF00009010024244848909048482424060A0AFF
:100E000009020090904848242448489090FFFFFF32
:100E1000FF090B160900000800140036005500D524
:100E200080550055005500550055005500090B161A
:100E30000900FF550055005500550055005500D5D7
:100E40008055003600140008000808080900001C3E
:100E500022A9712101221C080808090000384495C4
:100E60008E8480443809050A0900027200A900FF37
:100E700080A900720009050A09000220004000FF55
:100E8000804000200009050A09000202000100FF5D
:100E9000800100020009050A09000222004100FF4A
:100EA000804100220009070E090001100020007F88
:100EB0008080007F802000100009070E09000104D7
:100EC000000200FF000080FF000200040009070E7E
:100ED000090001140022007F0080807F002200149E
:100EE0000009050A09000220804080FF8040802020
:100EF0008009050A09000282008100FF80810082CA
:100F00000009070E090001108020807F8080807F0B
:100F1000802080108009070E09000184008200FFF4
:100F2000008080FF008200840009060C0900010295
:100F30000001005580AA80010002004465616374CD
:100F40006976617465640053656C656374205469E7
:100F50007000456E74657220546970204E616D6535
:100F600000FFE0FFD1AFFF32FFD0FFFEFFE0FFD177
:100F7000AEFFD0FFFEFFE0FFD11000FFFEFFD0FF6D
:100F8000E0FFC1FFD1AED580A83FD300408D142033
:100F900000A1C8DA1281CFD9F1DB402EA4A6AFFFA1
:100FA000D0FFFE00000000240027002A00000000FF
:100FB00000250028002B0000000000230026002947
:100FC00000040404040404040402020202020203F2
:100FD00003030303030102040810204080010204FC
:100FE000081020010204081020506C656173652010
:100FF000776169742E2E2E004144433A20200074FC
:10100000656D703A2000536574206D65617375726B
:10101000656400537465703A200043616C696272C4
:101020006174696F6E0052657475726E00536574F9
:101030002044697374616E636500446F636B65641B
:101040003A2000446973743A202020002E2E2E008E
:101050002056005663633A200020560056696E3AC7
:10106000200020B04300546D703A20004669726D34
:10107000776172653A2000303030003030300056F1
:101080000020484F4C4400204845415400574F52DF
:101090004B5900424F4F535400534C45455000208C
:1010A000204F4646004552524F52000000000800B3
:1010B000020100000304070000000000000000001F
:1010C000574DFBF12A000000002A3A002BF82A00B5
:1010D0001717452507140082000383800F83E01F44
:1010E000C7E00FC7E007C7C003EF8001EF0000FEB5
:1010F00000F8FE3EFFFFFEFFFFFEFFFFFEFE7CFE50
:1011000080FE0201EF0003EF8007EFC007C7C00FAA
:10111000C7E01F83F00783C00183002323AF3B0C8C
:10112000000001E000000001E000000001E000001C
:101130000001E000000001E000000001E00000000C
:1011400001E000000001E000000001E000000001FB
:10115000E000000001E000000001E000000001E00C
:1011600000000001E000000001E000000001E000DC
:1011700000FFFFFFFFE0FFFFFFFFE0FFFFFFFFE0DB
:10118000FFFFFFFFE00001E000000001E0000000C1
:1011900001E000000001E000000001E000000001AB
:1011A000E000000001E000000001E000000001E0BC
:1011B00000000001E000000001E000000001E0008C
:1011C000000001E000000001E000000001E000007C
:1011D0000C0F1E1203F80FF00FF00FE01FE01FC0FE
:1011E0001FC03F803F803F007F007E007E007C006C
:1011F000FC00FC000F081013020BFFFEFFFEFFFEB9
:10120000FFFEFFFEFFFEFFFEFFFE080808120600BD
:10121000FFFFFFFFFFFFFFFF132E8A1903FD0007EB
:10122000E00007E00007C0000FC0000FC0000F8003
:10123000001F80001F80001F80001F00003F000073
:101240003F00003E00007E00007E00007C0000FCAD
:101250000000FC0000FC0000F80001F80001F800AC
:1012600001F00003F00003F00003F00007E00007C6
:10127000E00007E00007C0000FC0000FC0000F80B3
:10128000001F80001F80001F80003F00003F000003
:101290003F00003E00007E00007E00007C0000FC5D
:1012A0000000FC0000FC00001D2CB02102FF001F0C
:1012B000C00000FFF80003FFFC0007FFFF000FFF66
:1012C000FF800FFFFF801FF0FFC03FC03FC03FC047
:1012D0003FE03F801FE07F801FF07F001FF07F0016
:1012E0000FF07F000FF0FF000FF0FF000FF8FF007E
:1012F0000FF8FF000FF8FF000FF8FF000FF8FF00D6
:101300000FF8FF000FF8FF000FF8FF000FF8FF00C5
:101310000FF8FF000FF8FF000FF8FF000FF8FF00B5
:101320000FF87F000FF07F000FF07F000FF07F00BD
:101330001FF07F801FF03F801FE03FC03FE03FC0B5
:101340003FC01FF0FFC00FFFFF800FFFFF0007FF30
:10135000FF0003FFFE0000FFF800001FC000122A7C
:101360007E210600003FC0007FC000FFC003FFC019
:101370000FFFC03FFFC0FFFFC0FFFFC0FFFFC0FF68
:101380003FC0FE3FC0F83FC0E03FC0003FC0003F4D
:10139000C0003FC0003FC0003FC0003FC0003FC092
:1013A000003FC0003FC0003FC0003FC0003FC00042
:1013B0003FC0003FC0003FC0003FC0003FC0003FF3
:1013C000C0003FC0003FC0003FC0003FC0003FC062
:1013D000003FC0003FC0003FC0003FC0003FC00012
:1013E0003FC01D2BAC210200000FF000007FFE006B
:1013F00001FFFF0003FFFF8007FFFFC00FFFFFE0BB
:101400001FF83FF01FF01FF01FE00FF03FC007F87C
:101410003FC007F83FC007F8000007F8000007F8D2
:1014200000000FF800000FF000001FF000001FF098
:1014300000003FE000007FE00000FFC00001FF80EF
:101440000003FF800007FF00000FFE00001FFC00EC
:10145000003FF800007FF00000FFE00001FF800087
:1014600003FF00000FFE00001FFC00003FF0000023
:101470007FE00000FFC00000FFFFFFF8FFFFFFF864
:10148000FFFFFFF8FFFFFFF8FFFFFFF8FFFFFFF888
:10149000FFFFFFF81C2CB02103FF007FC00003FFFB
:1014A000F80007FFFC001FFFFF003FFFFF003FFFAA
:1014B000FF807FE0FFC07FC07FC0FF803FC0FF0094
:1014C0001FE0FF001FE0FF001FE000001FE0000022
:1014D0001FE000001FE000003FC000007FC00003CD
:1014E000FF80007FFF00007FFC00007FF000007F96
:1014F000F800007FFE00007FFF800000FFC00000BA
:101500003FE000001FE000001FE000000FF00000BF
:101510000FF000000FF0FF000FF0FF000FF0FF00D2
:101520000FF0FF001FE0FF801FE07FC03FE07FE083
:10153000FFC03FFFFF803FFFFF001FFFFE000FFFC8
:10154000FC0003FFF800007FC0001F2AA821010053
:101550000001FFC00001FFC00003FFC00007FFC083
:101560000007FFC0000FFFC0000FFFC0001FFFC03B
:10157000003FFFC0003FBFC0007F3FC000FF3FC033
:1015800000FE3FC001FE3FC001FC3FC003F83FC06A
:1015900007F83FC007F03FC00FF03FC01FE03FC05B
:1015A0001FC03FC03FC03FC03F803FC07F803FC0A3
:1015B000FF003FC0FF003FC0FFFFFFFEFFFFFFFE39
:1015C000FFFFFFFEFFFFFFFEFFFFFFFEFFFFFFFE2F
:1015D000FFFFFFFE00003FC000003FC000003FC013
:1015E00000003FC000003FC000003FC000003FC0FF
:1015F00000003FC000003FC01D2BAC2102FF7FFF59
:10160000FFE07FFFFFE07FFFFFE07FFFFFE07FFF66
:10161000FFE07FFFFFE07FFFFFE07F8000007F8033
:1016200000007F8000007F8000007F8000007F80BE
:1016300000007F8000007F8000007F87F8007F9F90
:10164000FE007FFFFF807FFFFFC07FFFFFC07FFFA7
:10165000FFE07FF03FF07FC01FF07F800FF07F80C2
:101660000FF87F0007F8000007F8000007F80000F7
:1016700007F8000007F8000007F8000007F0FF0077
:101680000FF0FF000FF0FF001FF0FF803FE07FE052
:10169000FFC07FFFFFC03FFFFF801FFFFF000FFF66
:1016A000FC0003FFF800007FC0001D2CB02102FFEA
:1016B000000FF000007FFC0000FFFF0003FFFF8031
:1016C00007FFFFC007FFFFE00FFC3FE01FF00FF038
:1016D0001FE00FF03FC007F83FC007F83F80000051
:1016E0007F8000007F8000007F8000007F0000007E
:1016F000FF03F800FF1FFE00FF3FFF00FF7FFF809A
:10170000FFFFFFC0FFFFFFE0FFF83FF0FFE01FF02B
:10171000FFC00FF0FFC00FF8FF8007F8FF8007F849
:10172000FF8007F8FF8007F8FF8007F87F8007F841
:101730007F8007F87F8007F07FC00FF03FC00FF079
:101740003FE01FE01FF83FE01FFFFFC00FFFFF80DB
:1017500007FFFF0003FFFE0000FFF800003FC0008E
:101760001C2AA8210300FFFFFFF0FFFFFFF0FFFF8F
:10177000FFF0FFFFFFF0FFFFFFF0FFFFFFF0FFFFB5
:10178000FFF000000FF000000FF000001FF000005D
:101790001FE000003FE000003FC000007FC00000ED
:1017A0007FC00000FF800000FF800001FF000001FB
:1017B000FF000001FE000003FE000003FE00000722
:1017C000FC000007FC00000FF800000FF800001FED
:1017D000F800001FF000001FF000003FE000003F95
:1017E000E000007FC000007FC00000FFC00000FFDD
:1017F000800001FF800001FF000003FF000003FFE5
:10180000000003FE000007FE000007FC00001D2C86
:10181000B02102FF003FF00001FFFE0007FFFF8044
:101820000FFFFFC01FFFFFE03FFFFFF03FF87FF01B
:101830007FE01FF07FE01FF87FC00FF87FC00FF838
:101840007FC00FF87FC00FF87FC00FF83FE01FF098
:101850003FE01FF01FF87FE00FFFFFC007FFFF0012
:1018600001FFFC0000FFF80003FFFE000FFFFF80F8
:101870001FFFFFC03FF03FE07FE01FE07FC00FF0A1
:101880007FC00FF0FF8007F8FF8007F8FF8007F8A0
:10189000FF8007F8FF8007F8FF8007F8FFC00FF808
:1018A000FFC00FF87FE01FF07FF03FF07FFFFFE009
:1018B0003FFFFFE01FFFFFC00FFFFF8003FFFE00A1
:1018C000007FF0001D2CB02102FF001FC00000FFB0
:1018D000F80003FFFE0007FFFF000FFFFF801FFF60
:1018E000FF803FE0FFC03FC03FE07F801FE07F8080
:1018F0001FE07F000FF0FF000FF0FF000FF0FF0070
:101900000FF0FF000FF8FF000FF8FF000FF8FF00C7
:101910000FF8FF801FF87F801FF87FC03FF87FE03F
:10192000FFF83FFFFFF81FFFFFF81FFFF7F80FFF5B
:10193000E7F803FFC7F800FE07F0000007F000001B
:101940000FF000000FF000000FF000000FE07F80AC
:101950001FE07F801FE03F803FC03FC07FC03FE06F
:10196000FF801FFFFF800FFFFF0007FFFE0003FF48
:10197000FC0001FFF000003FC000081D1D1308001F
:10198000FFFFFFFFFFFFFFFF00000000000000005F
:101990000000000000FFFFFFFFFFFFFFFF00121A23
:1019A00000001803700390207F001A001800000048
:1019B000000B0000FFFFFFFFFFFFFFFFFFFF111005
:1019C0003013010601C00001C00001C00001C000C9
:1019D00001C00001C00001C000FFFF80FFFF8001C7
:1019E000C00001C00001C00001C00001C00001C072
:1019F0000001C0000708080B03023E3E3E3E3EF0D9
:101A0000F0F00902040B010DFF80FF800505050BB6
:101A10000502F8F8F8F8F8FF111848130102FFFF63
:101A200080FFFF80C00380C00380C00380C00380AC
:101A3000C00380C00380C00380C00380C00380C097
:101A40000380C00380C00380C00380C00380C00344
:101A500080C00380C00380C00380C00380FFFF807C
:101A6000FFFF80FFFF80061818130702FCFC1C1CF8
:101A70001C1C1C1C1C1C1C1C1C1C1C1C1C1C1C1CA6
:101A80001C1C1C1C111848130102FFFF80FFFF8063
:101A900000038000038000038000038000038000B7
:101AA0000380000380000380000380FFFF80FFFFAE
:101AB00080C00000C00000C00000C00000C00000E6
:101AC000C00000C00000C00000FFFF80FFFF80FFDB
:101AD000FF80111848130102FFFF80FFFF80000301
:101AE00080000380000380000380000380000380E7
:101AF0000003800003800003801FFF801FFF800021
:101B00000380000380000380000380000380000343
:101B100080000380000380FFFF80FFFF80FFFF80C5
:101B2000111848130102C00380C00380C00380C0A5
:101B30000380C00380C00380C00380C00380C00353
:101B400080C00380C00380FFFF80FFFF8000038010
:101B500000038000038000038000038000038000F6
:101B600003800003800003800003800003801118BD
:101B700048130102FFFF80FFFF80C00000C000008B
:101B8000C00000C00000C00000C00000C00000C0D5
:101B90000000C00000FFFF80FFFF80000380000303
:101BA0008000038000038000038000038000038026
:101BB000000380FFFF80FFFF80FFFF8011184813A4
:101BC0000102FFFF80FFFF80C00000C00000C000D6
:101BD00000C00000C00000C00000C00000C0000045
:101BE000C00000FFFF80FFFF80C00380C00380C0F3
:101BF0000380C00380C00380C00380C00380C00393
:101C000080FFFF80FFFF80FFFF801018301302026B
:101C1000FFFFFFFF0007000700070007000700079E
:101C2000000700070007000700070007000700077C
:101C3000000700070007000700070007000700076C
:101C4000111848130102FFFF80FFFF80C00380C00E
:101C50000380C00380C00380C00380C00380C00332
:101C600080C00380C00380FFFF80FFFF80C003802F
:101C7000C00380C00380C00380C00380C00380C055
:101C80000380C00380FFFF80FFFF80FFFF801118EB
:101C900048130102FFFF80FFFF80C00380C0038064
:101CA000C00380C00380C00380C00380C00380C025
:101CB0000380C00380FFFF80FFFF800003800003DC
:101CC0008000038000038000038000038000038005
:101CD000000380FFFF80FFFF80FFFF800510100BD7
:101CE0000502F8F8F8F8F8000000000000F8F8F82D
:101CF000F8F80710100B03023E3E3E3E3E00000087
:101D00003E3E3E3E3EF0F0F0FFFFFFFFFFFFFFFFD5
:101D1000FFFFFFFFFFFFFFFFFFFFFFFFFFFFFFFFD3
:101D2000FFFFFFFFFFFFFFFFFFFFFFFFFFFFFFFFC3
:101D3000FFFFFFFFFFFFFFFFFFFFFFFFFFFFFFFFB3
:101D4000FFFFFFFFFFFFFFFFFFFFFFFF00090F0087
:101D5000FD0A01E803D820FFFD0CFD0BFD0000008B
:101D600009000C010B0B09040080808080808080BA
:101D70000000808004030309030790909006080880
:101D80000901014848FC4848FC4848070B0B090179
:101D9000FF107C929050381412927C10070A0A09A6
:101DA000010042A4A4481010244A4A84070A0A09E0
:101DB000010060909090606294889462010303092E
:101DC0000407808080030C0C0903FF2040408080C2
:101DD00080808080404020030C0C0903FF8040403D
:101DE0002020202020204040800707070901031001
:101DF000925438549210070707090101101010FE81
:101E00001010100205050904FDC0C0404080070104
:101E100001090104FE020202090400C0C0070A0A07
:101E200009010002040408101020404080070A0A3B
:101E300009010038448282828282824438070A0A79
:101E4000090100103050901010101010FE070A0AFF
:101E50000901007C8282040810204080FE070A0AE3
:101E6000090100FE0204081C020202827C070A0A21
:101E7000090100040C14244484FE040404070A0A23
:101E8000090100FE8080BCC2020202827C070A0AAD
:101E90000901003C408080BCC28282827C070A0A21
:101EA000090100FE020404080810102020070A0A95
:101EB00009010038448244384482824438070A0ABF
:101EC0000901007C828282867A0202047802070776
:101ED000090400C0C0000000C0C0020A0A0904FDD5
:101EE000C0C0000000C0C0404080050A0A090200CE
:101EF00008102040808040201008070404090102D7
:101F0000FE0000FE050A0A090200804020100808B1
:101F100010204080070A0A0901007C82820204081E
:101F200010100010070A0A0901007C82829EA2A6F6
:101F30009A80807C070A0A09010010284482828264
:101F4000FE828282070A0A090100F8848284F884EA
:101F5000828284F8070A0A0901007C8280808080DE
:101F60008080827C070A0A090100F88482828282CA
:101F7000828284F8070A0A090100FE808080F880C6
:101F8000808080FE070A0A090100FE808080F880B8
:101F900080808080070A0A0901007C828080808E10
:101FA0008282827C070A0A09010082828282FE8282
:101FB00082828282050A0A090200F820202020205D
:101FC000202020F8080A0A0901001F040404040460
:101FD00004048478070A0A09010082848890E0A03A
:101FE00090888482070A0A090100808080808080AE
:101FF000808080FE070A0A0901008282C6AAAA928E
:1020000092828282070A0A0901008282C2A2928A0F
:1020100086828282070A0A0901007C828282828289
:102020008282827C070A0A090100FC828282FC808B
:1020300080808080070C0C0901FE7C828282828273
:1020400082A2927C0806070A0A090100FC828282A9
:10205000FC9088848282070A0A0901007C828280BF
:10206000700C0282827C070A0A090100FE1010101F
:10207000101010101010070A0A09010082828282D3
:1020800082828282827C070A0A090100828282445B
:10209000444428282810070A0A0901008282828203
:1020A00092929292AA44070A0A0901008282442865
:1020B000101028448282070A0A09010082824428FB
:1020C000101010101010070A0A090100FE0204087F
:1020D0001020408080FE040C0C0903FFF0808080FB
:1020E00080808080808080F0070A0A09010080409B
:1020F0004020101008040402040C0C0902FFF01028
:10210000101010101010101010F007040409010630
:10211000102844820801010900FFFF03030309039B
:10212000088040200707070901007C02027E8286A2
:102130007A070A0A090100808080BCC2828282C2BA
:10214000BC0707070901007C82808080827C070A27
:102150000A0901000202027A86828282867A0707D1
:10216000070901007C8282FE80807C070A0A09013F
:10217000001C22222020F820202020070A0A090122
:10218000FD7A84848478807C82827C070A0A090133
:1021900000808080BCC28282828282050A0A090293
:1021A00000600000E02020202020F8060D0D09012D
:1021B000FD0C00001C040404040484848478070AD1
:1021C0000A090100808080828CB0C0B08C82050A30
:1021D0000A090200E02020202020202020F8070704
:1021E00007090100EC929292929282070707090177
:1021F00000BCC282828282820707070901007C82BA
:10220000828282827C070A0A0901FDBCC282828224
:10221000C2BC808080070A0A0901FD7A8682828218
:10222000867A0202020707070901009C62424040C9
:1022300040400707070901007C82807C02827C07FE
:1022400009090901002020FC20202020221C07076A
:10225000070901008484848484847A0707070901BC
:10226000008282444428281007070709010082825F
:10227000929292AA44070707090100824428102875
:102280004482060A0A0901FD84848484848C7404CF
:102290008478070707090100FE0408102040FE05A6
:1022A0000C0C0903FF3840404020C0C02040404093
:1022B00038010C0C0904FF80808080808080808041
:1022C000808080050C0C0901FFE010101020181808
:1022D00020101010E007030309010762928CFFFF32
:1022E000FFFFFFFFFFFFFFFFFFFFFFFFFFFFFFFFFE
:1022F000FFFFFFFFFFFFFFFFFFFFFFFFFFFFFF00ED
:10230000000009000C010B0B090400808000008014
:1023100080808080808006080809010008789490F9
:10232000A0A47840070A0A0901001C222020F820F6
:102330002060A25C070606090103827C44447C827B
:10234000070A0A090100828244287C107C101010C0
:10235000010B0B0904FF80808080800080808080DA
:1023600080040B0B0902FF609080609090906010D9
:10237000906005020209020988880809090900011C
:102380003C4299A5A1A599423C05070709010360B4
:102390009070907800F8070808090101122448900D
:1023A00090482412060404090102FC0404040501F7
:1023B00001090204F80809090900013C42B9A5B95C
:1023C000A9A5423C060101090109FC040404090312
:1023D0000660909060070909090101101010FE10B5
:1023E000101000FE0406060901046090106080F0E1
:1023F000040606090104609020109060030303099D
:1024000003082040800709090901FE828282828236
:10241000C6BA8080070A0A0901007E8A8A8A7A0A77
:102420000A0A0A0A020202090404C0C004030309DA
:1024300002FD30906003060609010440C0404040A0
:10244000E00506060901047088887000F80708088E
:102450000901019048241212244890070A0A090130
:102460000040C0404042E60A121A06070A0A090163
:102470000040C040404CF2020C101E070A0A09013D
:10248000006090201092660A121A06070A0A0901D3
:10249000001000101020408082827C070C0C090183
:1024A000004020100038448282FE828282070C0C99
:1024B0000901000408100038448282FE82828207EB
:1024C0000C0C0901001028440038448282FE8282EC
:1024D00082070B0B090100629C0038448282FE8255
:1024E0008282070B0B09010044440038448282FEBB
:1024F000828282070B0B090100384438284482820B
:10250000FE828282070A0A0901006E90909090FC78
:102510009090909E070D0D0901FD7C828080808047
:102520008080827C184830070C0C09010040201084
:1025300000FE404078404040FE070C0C09010004BA
:10254000081000FE404078404040FE070C0C090196
:102550000010284400FE404078404040FE070B0B2E
:10256000090100444400FE404078404040FE050C14
:102570000C09020080402000F8202020202020F8B4
:10258000050C0C09020008102000F8202020202053
:1025900020F8050C0C09020020508800F8202020AB
:1025A000202020F8050B0B090200888800F8202065
:1025B00020202020F8080A0A0900007C424141E15D
:1025C000414141427C070B0B090100629C0082C221
:1025D000A292928A8682070C0C090100402010000A
:1025E0007C8282828282827C070C0C0901000408B2
:1025F00010007C8282828282827C070C0C0901009E
:10260000102844007C8282828282827C070B0B0924
:102610000100629C007C8282828282827C070B0B9A
:102620000901004444007C8282828282827C070706
:102630000709010182442810284482070C0C090173
:10264000FF027C868A8A9292A2A2C27C80070C0C2E
:1026500009010040201000828282828282827C07EF
:102660000C0C09010004081000828282828282829E
:102670007C070C0C090100102844008282828282AF
:1026800082827C070B0B0901004444008282828213
:102690008282827C070C0C090100040810008282EF
:1026A000442810101010070A0A0901008080FC82DB
:1026B0008282FC808080060A0A090100384444486E
:1026C000D04844444458070B0B090100201008006F
:1026D0007C02027E82867A070B0B09010004081037
:1026E000007C02027E82867A070B0B09010010280B
:1026F00044007C02027E82867A070A0A09010032BF
:102700004C007C02027E82867A070A0A0901004494
:1027100044007C02027E82867A070B0B09010018B6
:102720002418007C02027E82867A070707090100CE
:102730006C92127C90926E070A0A0901FD7C8280DD
:102740008080827C184830070B0B09010040201064
:10275000007C8282FE80807C070B0B09010004084C
:1027600010007C8282FE80807C070B0B0901001028
:102770002844007C8282FE80807C070A0A090100CE
:102780004444007C8282FE80807C050B0B090200A1
:1027900080402000E02020202020F8050B0B0902BB
:1027A0000010204000E02020202020F8060B0B091C
:1027B0000100205088007010101010107C050A0ACB
:1027C000090200909000E02020202020F8070B0B49
:1027D000090100483050087C82828282827C070A8C
:1027E0000A090100629C00BCC28282828282070BBD
:1027F0000B090100402010007C82828282827C07CB
:102800000B0B090100040810007C82828282827C0A
:10281000070B0B090100102844007C82828282820F
:102820007C070A0A090100629C007C828282828203
:102830007C070A0A0901004444007C828282828269
:102840007C07090909010010381000FE001038103B
:102850000709090901FF027C8A8A92A2A27C8007EB
:102860000B0B090100402010008484848484847A46
:10287000070B0B09010004081000848484848484FD
:102880007A070B0B09010010284400848484848497
:10289000847A070A0A0901004848008484848484F1
:1028A000847A060E0E0901FD0810200084848484B9
:1028B000848C74048478070C0C0901FD808080BC32
:1028C000C28282C2BC808080060D0D0901FD48488D
:1028D0000084848484848C740484780016341124E5
:1028E0001FBECFEFD8E0DEBFCDBF14E0A0E0B1E067
:1028F000E4E6F4E702C005900D92AE33B107D9F7D4
:1029000025E0AEE3B4E001C01D92AA38B207E1F7BA
:1029100014E1CFE6D4E104C02197FE010E943838CB
:10292000CE36D107C9F70E94EF2A0C94303A0C94A6
:1029300000004F925F926F927F928F929F92AF9220
:10294000BF92CF92DF92EF92FF920F931F93CF939C
:10295000DF9300D000D0CDB7DEB74B015C01290179
:102960003A016701780120E030E0A9010E943D357D
:1029700087FDA6C020E030E0A901C301B2010E949A
:102980003D3587FD9DC020E030E0A901C801B601BA
:102990000E943D3587FD94C081E02091260530914D
:1029A00027052130310509F080E0809347058092AA
:1029B0000C0590920D05A0920E05B0920F05409265
:1029C0001005509211056092120570921305C09285
:1029D0001405D0921505E0921605F0921705609146
:1029E0003A0570913B0580913C0590913D050E9410
:1029F000423520E030E04AE754E40E9476376983AC
:102A00007A838B839C838092180590921905A092FB
:102A10001A05B0921B059B01AC01C301B2010E94D3
:102A2000A3352B013C0140921C0550921D0560927C
:102A30001E0570921F0529813A814B815C81C70177
:102A4000B6010E9476376B017C01C0922005D092BE
:102A50002105E0922205F0922305809124059091B2
:102A60002505019769F5A501940160E070E0CB01AF
:102A70000E940937609318057093190580931A0511
:102A800090931B05A301920160E070E0CB010E94CE
:102A9000093760931C0570931D0580931E05909364
:102AA0001F05A701960160E070E0CB010E94093785
:102AB0006093200570932105809322059093230550
:102AC0000F900F900F900F90DF91CF911F910F916A
:102AD000FF90EF90DF90CF90BF90AF909F908F903E
:102AE0007F906F905F904F90089580E008952091BF
:102AF0005005309151052817390799F190935105E8
:102B000080935005009739F120916305FC01211154
:102B100029C03596E491E09364050C96FC018491FC
:102B20008093650580916405082E000C990B209117
:102B30006505821B910927FD939520916605203438
:102B400041F0829FC001112426E0969587952A9531
:102B5000E1F78093670585E795E19093620580939F
:102B600061050895213031F43F96E491E0936405C6
:102B70004096D4CF3D96E491E09364050E96CECF77
:102B8000FC01808D8F5F0895AF92BF92CF92DF924C
:102B9000EF92FF920F931F93CF93DF936C017B0112
:102BA0008B01040F151FEB015E01AE18BF08C017A3
:102BB000D10759F06991D601ED91FC910190F08116
:102BC000E02DC6010995892B79F7C501DF91CF91D9
:102BD0001F910F91FF90EF90DF90CF90BF90AF903B
:102BE0000895833081F028F4813099F08230A9F083
:102BF00008958730A9F08830C9F08430B1F480910D
:102C000080008F7D03C0809180008F77809380004B
:102C1000089584B58F7784BD089584B58F7DFBCFEB
:102C20008091B0008F778093B00008958091B000BC
:102C30008F7DF9CFCF93DF93282F30E0F901E55551
:102C4000FF4E8491F901EB52F04FD491F901EF530B
:102C5000F04FC491CC23A1F081110E94F115EC2F0B
:102C6000F0E0EE0FFF1FE954F04FA591B491EC9105
:102C7000ED2381E090E009F480E0DF91CF910895A9
:102C800080E090E0FACF1F93CF93DF93282F30E0BE
:102C9000F901E555FF4E8491F901EB52F04FD491C3
:102CA000F901EF53F04FC491CC23A9F0162F8111F5
:102CB0000E94F115EC2FF0E0EE0FFF1FE355F04FEF
:102CC000A591B4918FB7F894EC91111108C0D095EB
:102CD000DE23DC938FBFDF91CF911F910895DE2B10
:102CE000F8CFCF93DF9390E0FC01EB52F04F2491AB
:102CF0008F53904FFC0184918823C9F090E0880F96
:102D0000991FFC01ED55F04FA591B491FC01E355DD
:102D1000F04FC591D49161110DC09FB7F8948C917B
:102D2000209582238C938881282328839FBFDF915D
:102D3000CF910895623051F49FB7F8943C91822F5F
:102D4000809583238C93E8812E2BEFCF8FB7F89457
:102D5000EC912E2B2C938FBFEACFCF93DF93EC0116
:102D600061E089E00E947116209731F460E089E00B
:102D7000DF91CF910C944316CF3FD10511F461E060
:102D8000F6CFE4EBF0E1E491E33029F140F4E130F7
:102D9000B1F0E230D9F0C038D1058CF7E7CFE73099
:102DA00021F1E83051F1E430B1F780918000806288
:102DB00080938000D0938B00C0938A0004C084B5B8
:102DC000806884BDC7BDDF91CF91089584B58062CE
:102DD00084BDC8BDF8CF809180008068809380005A
:102DE000D0938900C0938800EECF8091B0008068B6
:102DF0008093B000C093B300E6CF8091B0008062B2
:102E00008093B000C093B400DECF3FB7F8948091B8
:102E1000CE049091CF04A091D004B091D10426B5F6
:102E2000A89B05C02F3F19F00196A11DB11D3FBF02
:102E3000BA2FA92F982F8827BC01CD01620F711DD1
:102E4000811D911D42E0660F771F881F991F4A95CB
:102E5000D1F708958F929F92AF92BF92CF92DF9257
:102E6000EF92FF924B015C010E9405176B017C0100
:102E70000E9405176C197D098E099F09683E7340F1
:102E800081059105A8F321E0821A9108A108B108F3
:102E900088EEC80E83E0D81EE11CF11C8114910459
:102EA000A104B10429F7FF90EF90DF90CF90BF907D
:102EB000AF909F908F9008952FB7F8946091CA04B7
:102EC0007091CB048091CC049091CD042FBF0895D4
:102ED000089580E00895DC011696ED91FC91179716
:102EE00012968C91481B477081E090E001C0880FDA
:102EF0004A95EAF7E60FF11D3081222319F0832B62
:102F00008083089580958323FBCFFB014181DC0101
:102F100012962C911297421768F013962C911397E2
:102F2000241740F0608115962C91621718F42481C3
:102F30000C946B170895FC0180819281980F928305
:102F40002181921760F494819F5F94839381890F0C
:102F5000821710F08FEF820F838381E0089580E065
:102F60000895FC0112828081815083831482089528
:102F7000DB01ED91FC9109940F931F93CF93E091A6
:102F80005A05F0915B05309719F08CE495E00995AE
:102F900000914E0510914F05E0917D05F0917E0561
:102FA00082E00995E0917D05F0917E0581E009952B
:102FB00030E020E045E1B8018CE495E00E94B817CC
:102FC000C82F882341F02FE735E047E1B8018CE4B2
:102FD00095E00E94B817E0917D05F0917E0580E0B4
:102FE00009958C2FCF911F910F910895CF93DF9367
:102FF0001F92CDB7DEB79E012F5F3F4F47E40E947F
:10300000B81789810F90DF91CF910895CF93DF9307
:103010001F92CDB7DEB79E012F5F3F4F46E40E945F
:10302000B81789810F90DF91CF910895BF92CF9209
:10303000DF92EF92FF920F931F93CF93DF938C0158
:10304000D42EE901FB01E280F380F2E34F1709F48B
:1030500076C0F417C8F08CE2481709F470C0EDE2AE
:103060004E17E9F0F7E14F1779F19E014D2DB701A9
:10307000C801DF91CF911F910F91FF90EF90DF90EA
:10308000CF90BF900C94B81786E4481709F44CC051
:10309000E7E44E1709F44EC0FBE34F13E6CFB70148
:1030A000C8010E94F617C980C094C80EB701C801B4
:1030B0000E94061898819095890F8883C9828B8118
:1030C0008E5F83708B834BC047E1B701C8010E94BC
:1030D000B817B701C8010E940618BA80B094B80E9C
:1030E000B701C8010E940618D880D094D80EB70145
:1030F000C8010E94F617CB80C094C80EB701C80162
:103100000E94F61799819095890FB882C982DA8258
:103110008B8381E0DF91CF911F910F91FF90EF9012
:10312000DF90CF90BF900895B701C8010E940618A4
:103130008883EFCFB701C8010E94F617F9CFB70116
:10314000C8010E94F617C980C094C80EB701C80113
:103150000E94061898819095890F8883C9829E01E4
:103160004D2DB701C8010E94B817D3CFCF93DF937D
:10317000EC016A817B810E94061888836A817B81C9
:10318000CE010E94F61789836A817B8130E020E0BE
:1031900048E4CE010E94B8178B879E012D5C3F4FFB
:1031A0006A817B8147E1CE01DF91CF910C94B81702
:1031B000CF93DF93C0914E05D0914F05E0917D05EF
:1031C000F0917E0582E0099530E020E04AE0BE0102
:1031D0008CE495E00E94B817C82FE0917D05F0912E
:1031E0007E0583E00995E0917D05F0917E0580E004
:1031F0000995CC2329F08CE495E00E94B618C1E033
:103200008C2FDF91CF910895CF93DF938091850527
:10321000811105C081E0809385050E94D818C09176
:103220004E05D0914F05E0917D05F0917E0582E03D
:103230000995E0917D05F0917E0581E0099530E0EA
:1032400020E044E1BE018CE495E00E94B8172FE72E
:1032500035E047E1BE018CE495E00E94B817E091AB
:103260007D05F0917E0580E0DF91CF9109940B966A
:10327000FC01849108950A96FC0184910895FC0153
:10328000849108950E943F19882321F0823011F023
:1032900083E0089586E00895FC01E60FF11D849116
:1032A00090E0982F88273196E4918E0F911D089514
:1032B00068E00C944C1966E00C944C19BF92CF92C4
:1032C000DF92EF92FF920F931F93CF93DF938C01C6
:1032D000E62EDC011496CD91DC91CE010E943F19BF
:1032E000F82EF801848195810E944219B82EF1E0F0
:1032F000CC24CA94FF1202C02FE0C22ED80114962B
:103300008D919C910E943B19F82EF8018481958142
:103310000E943719D82ED80114968D919C910E9445
:103320005819B0E6BE1520F5009711F1C80FD91F46
:1033300091E6F92EDE1468F5D80150961C9250974C
:1033400053961C92539754961C92549751961C92E4
:10335000519752961C92D0E0C0E0CE01DF91CF9100
:103360001F910F91FF90EF90DF90CF90BF90089545
:10337000F801848195810E945B19F0E4FE1538F410
:10338000009729F0C80FD91F81E4F82ED3CF61969A
:10339000D1CFDF1488F28B2D90E0FE0124912F3FD6
:1033A00029F42196FD1441F2F394F7CFFE104BC09F
:1033B000D80114968D919C910E943F199E012F5F18
:1033C0003F4FFE01882311F08230E1F48491D8014F
:1033D00053968C935397F901249154962C935497B8
:1033E000FE013396E4915096EC935097FE0134968B
:1033F000E4915196EC935197FE013596E4915296E3
:10340000EC93ABCF8491982F9F709250D801529635
:103410009C93529782958F7051968C935197F90196
:103420002491822F8F7054968C93549722952F70ED
:1034300053962C935397FE013296E491E295EF70E8
:103440005096EC938ACF3296E491EC21E80FF92F55
:10345000F11DCE0FDF1FA6CF0F931F93CF938C01CB
:10346000C0E0F80161918F01662341F08CE495E0A2
:103470000E945E1980915C05C80FF3CF8C2FCF910D
:103480001F910F9108955F926F927F928F929F92FA
:10349000AF92BF92CF92DF92EF92FF920F931F9362
:1034A000CF93DF93EC01062F142F622F0E945E1939
:1034B0007C0180E0E114F104C1F18C819D810E94C6
:1034C00042193C89131B9A89191B9FEF930F910F87
:1034D0002CA94EA9411730F1921710F4911720F53D
:1034E0002B899989090F9FEF920F900F4BA95DA926
:1034F000501758F1941710F49017B0F4E80EF11C1F
:10350000295F722E769476947694612E630E5E0116
:103510008CE1A80EB11C872C912C161529F0502E89
:10352000670128C09217D0F68889DF91CF911F914B
:103530000F91FF90EF90DF90CF90BF90AF909F9052
:103540008F907F906F905F9008959417A8F6ECCFBE
:10355000F60184916A817B815C8E1D8F1F8E8E8F18
:1035600095014BE3CE010E94B817FFEFCF1ADF0A97
:1035700088E0580E8C2D8E19871550F3E80CF91C35
:103580001F5FCBCFEF92FF920F931F93CF93DF93E9
:10359000F82E062FE42E152FE0916105F0916205BB
:1035A0008CE495E00995080FCE2DD12F10E02991DC
:1035B000211108C0812FDF91CF911F910F91FF90B2
:1035C000EF900895402F6F2D8CE495E00E94431AF0
:1035D000F80E180FECCF0F931F93CF93DF938C014E
:1035E000E0916105F09162058CE495E00995D82F92
:1035F000C0E0F8012491222351F04D2F6C2F8CE470
:1036000095E00E94431AC80F0F5F1F4FF2CF8C2F17
:10361000DF91CF911F910F9108952EE93FE0009720
:1036200009F40895F9013197F1F70197F8CFCF9395
:10363000DF9300D0CDB7DEB720ED37E03A832983A2
:103640009091BC00982311F081E00FC029813A814C
:10365000232B81F480910B0581FDF6CF80910A0523
:1036600081110DC091E090930A050F900F90DF91AA
:10367000CF91089529813A8121503109DFCF80E02F
:10368000F4CF84EA8093BC0061E080E80E94171BBD
:10369000811102C080E008958091B900887F883050
:1036A00051F0803141F080910A058111F3CF82E021
:1036B00080930A05EFCF88E78093BB0084E880936E
:1036C000BC0062E080E80E94171B882319F38091F8
:1036D0000B0581FD05C08091B900887F883119F7FD
:1036E00081E0089584E98093BC0064E080E10C945B
:1036F000171B8093BB0084E88093BC0063E080E8E4
:103700000E94171B8823A1F080910B0581FD0DC03D
:103710008091B900887F883241F080910A0581113B
:1037200006C092E090930A05089581E0089580E034
:10373000089510920A05089580930B051092B90020
:1037400084FF05C08CE08093B8000C94991B88E43A
:10375000FACFCF93DF93FC0123A5222389F0EC015C
:103760000E94411B811104C080E0DF91CF91089538
:103770008EA1811107C00E94791B8823A9F31BA683
:1037800081E0F3CF80E4F7CF0F931F93CF93DF93C4
:10379000C62FD42F8901633001F138F4613099F0DC
:1037A000623009F449C0C1E012C0663029F16730C7
:1037B00091F16530C1F70E94A91B811117C00E94C9
:1037C000721BC0E004C0FC0186A50E949C1B8C2FCC
:1037D000DF91CF911F910F910895FC0116A221E076
:1037E00023A74111E0CF0E94721BDDCF8D2F0E94D5
:1037F000791B8111D8CFE3CF0E94A91B8823F9F24E
:10380000DD2389F2F80181918F010E94791B8823C1
:10381000B1F2D150F5CF0E94A91B882381F2DD239C
:1038200011F2F80184910E94791BC82F882379F244
:103830000F5F1F4FD150F3CFFC0146A321E023A718
:10384000B2CFDB011496ED91FC9130E020E065E011
:103850000994DB011496ED91FC9130E020E062E0E8
:103860000994DB011496ED91FC9130E020E063E0D7
:103870000994CF92DF92EF92FF920F931F93CF9311
:10388000DF938C017B016A0180E0F601C491811114
:1038900010C081E0CF3F49F04C2FB701C8010E9412
:1038A000211C882309F444C080E0BFEFCB1ADB0A57
:1038B000ECCF4FEFCF3F89F3CE3FD9F1C03FA0F718
:1038C000C03E38F04C2F4F70B701C8010E94291C30
:1038D000EBCFC03D38F04C2F4F70B701C8010E94AC
:1038E000311CE2CFC03CF8F0D7011496ED91FC9169
:1038F00030E020E040E064E0C8010995C295C07F57
:10390000CE5FD0E0CE010E940D1BD7011496ED9141
:10391000FC9130E020E041E064E0C8010995CE016F
:103920000E940D1BC1CFC7FDBFCF8C2F90E0F8CFF9
:1039300080E0DF91CF911F910F91FF90EF90DF908A
:10394000CF900895AF92BF92CF92DF92FF920F93E4
:103950001F93CF93DF936C018B01F42EE90180E17B
:10396000481709F47EC0841778F1AAE04A1709F4D1
:1039700061C0BFE04B1709F47FC0F80102811381D9
:10398000F2E3FF1609F4DDC0FF1508F48EC085E1EF
:10399000F81609F4DBC0A7E1FA1609F4ECC0B4E1AB
:1039A000FB1265C0D8011696ED91FC9117971596FC
:1039B0008C918E0F9F2F911D11928E179F07E1F70B
:1039C000C8010E94B11753C0E1E14E1709F451C07C
:1039D000F5E14F13D2CFFB01A280B38045E75FE052
:1039E000C6010E94391CD50114964C91406BB80158
:1039F000C6010E94211C41E0B801C6010E94291C99
:103A0000F50126813781D8011496ED91FC91D501FD
:103A100015964C9166E0C601099581111CC080E0A5
:103A2000DF91CF911F910F91FF90DF90CF90BF90CA
:103A3000AF900895DB011496ED91FC9130E020E009
:103A400042E061E0C60109954DE75FE0B801C601BB
:103A50000E94391C92CF40E0B801C6010E94311C7F
:103A60008CCF4CE65FE0B801C6010E94391C81E0B2
:103A7000D7CF41E65FE0F7CF41E0C6010E94311C9D
:103A800040E0B801C6010E94291C41E8B801C60106
:103A90000E94211C4881B801C6010E94211C40E0FF
:103AA000B801C6010E94311CE2CFE6E4FE1609F41B
:103AB0006CC0F7E4FF1609F46DC08BE3F812D7CFA2
:103AC00099818B8138E0390F813031F0833011F0EA
:103AD000392F02C0392F985021E0D80113964C910C
:103AE000491708F420E041E0391708F040E091E080
:103AF000F8015281351708F490E0322F342B9323CC
:103B000019F4242309F4B3CFFA80D12CC12C8430CA
:103B100048F490E0FC01E65CFD4FC0808A5C9D4F5C
:103B2000DC01DC90F7FE04C0BE01C8010E948517CD
:103B300088818C0D888389818D0D8983FF0C91F795
:103B400096CFBE01C8010E94851791CFC8010E947F
:103B50009B17882309F463CFD8011696ED91FC9149
:103B6000179715968C918E0F9F2F911D11928E177E
:103B70009F07E1F77CCF1882F801828189838581D4
:103B800081508A8383818B8372CFD80115968C9163
:103B900088836DCFF8018181FBCF80917A008069A5
:103BA00080937A008EE480937C0061E070E080E096
:103BB00090E00E942A1783B7817F826083BF80E1F3
:103BC00030E020E093B7916093BF889593B79E7FD4
:103BD00093BF90917A0096FDFCCF40917800509170
:103BE0007900240F351F815069F780917A008F7713
:103BF00080937A0084E0369527958A95E1F750E026
:103C000040E064EB7BE281E190E00E947736C901FD
:103C1000089580917A00806980937A0088EC80937F
:103C20007C0064E170E080E090E00E942A1783B796
:103C3000817F826083BF20E080E090E0DC0133B7C9
:103C4000316033BF889533B73E7F33BF30917A0000
:103C500036FDFCCF4091780050917900840F951F7C
:103C6000A11DB11D2F5F203851F720917A002F77C9
:103C700020937A00BC01CD0126E095958795779534
:103C800067952A95D1F7635B7F4F8F4F9F4F0E94B7
:103C900044352EEA37E242E254E40E94093726EF27
:103CA00038E24CE150E40E94763708956A509091D2
:103CB0007A00906990937A008E50806480937C00A3
:103CC00083B7817F826083BF70E0CB01880F991F2B
:103CD000059641E050E002C0440F551F8A95E2F777
:103CE00020E080E090E0DC0124171506ACF433B747
:103CF000316033BF889533B73E7F33BF30917A0050
:103D000036FDFCCFE0917800F09179008E0F9F1F77
:103D1000A11DB11D2F5FE8CF20917A002F7720934E
:103D20007A006B5F7F4F04C0B695A79597958795EE
:103D30006A95D2F708958091E004811106C085E16B
:103D40006BE00E94561E0196089584E1F9CF6AE067
:103D50008FE00E94561EA091DD04B091DE049C010C
:103D60000E94FA360E94443528E539E743E353E4DC
:103D70000E9476370E94EF37CB0108950E949B1E68
:103D80002091D5043091D604AC01421B530B6091B5
:103D9000B60180E0662381F070E0CA0157FF04C0DD
:103DA00088279927841B950B8617970754F0852F32
:103DB0008095881F8827881F5093DC044093DB047C
:103DC00008958091DC042091DB04382F37FF03C075
:103DD000319521953109261737075CF78091230229
:103DE000EBCF8091B601882391F08091E004882385
:103DF00041F060E080E10E94431661E084E00C94B1
:103E0000431661E080E10E94431660E0F7CF60E076
:103E1000F9CF80914E0590914F052091E004222327
:103E2000C1F021E08A30920751F090930D01809308
:103E30000C018AE091E090934F0580934E0586E156
:103E400098E190930B0180930A018CE495E00C9427
:103E5000B6188A50914049F480910C0190910D015F
:103E600090934F0580934E05F0CF0895880F991FCA
:103E70009093C2048093C104660F771F7093C004AF
:103E80006093BF048091DF04882319F05195419518
:103E900051095093C4044093C304220F331F30933D
:103EA000EC042093EB0408950F931F93CF9380911C
:103EB000C901882399F0CFEF0FEE11E061E085E0B2
:103EC0000E944316C8010197F1F760E085E00E9467
:103ED0004316C8010197F1F7C15081F7CF911F91A7
:103EE0000F910895CF92DF92EF92FF920F931F935D
:103EF000CF93DF93D82EC92E86E00E941A16C1E018
:103F0000892B09F0C0E00E94041980ECE82E85E1BD
:103F1000F82E8CE49DE10E947715F0926205E09204
:103F200061050D2D1C2DD0E0F801419151918F01BB
:103F30006D2F80E00E94C21AD05FD038A9F70E948E
:103F4000BC178111E6CFCC2369F086E00E941A16D7
:103F5000C1E0892B39F06AE070E080E090E00E94D7
:103F60002A17C0E086E00E941A16892B61F7C1115A
:103F7000ECCFDF91CF911F910F91FF90EF90DF90E9
:103F8000CF900C94541F5F926F927F928F929F926A
:103F9000AF92BF92CF92DF92EF92FF920F931F9357
:103FA000CF93DF939090F304AA24A394911001C0BF
:103FB000A12C292D30E0609172016150770B41E016
:103FC00050E090E080E00E94361F86E00E941A16C2
:103FD000DD24D394892B09F0D12C00EC15E146E0C7
:103FE000B42EC091EB04D091EC04D595C795CC2E9E
:103FF0007E01FF24C7018A0D911DA7FC9A9589199E
:104000009109A12C97FD06C08330910514F082E040
:1040100090E0A82E0E9404198A2D0A2C000C990BFE
:104020003C012FEF621A720A629420EF62225C2C2C
:104030005A18E81AF90A8CE49DE10E94771510934A
:1040400062050093610587E49FE00E94EB1A4EE34E
:1040500052E0662D80E00E94C21A912C812C712CB6
:10406000852D870D739490917201891780F4C70193
:10407000880D991DB89EA001B99E500D11244E5077
:104080005E4F672D6295607F8CE00E94C21A8FEFB1
:10409000881A980A23E07212E3CF0E94BC1781119C
:1040A000CACFDD2061F086E00E941A16892B39F014
:1040B0006AE070E080E090E00E942A17D12C86E050
:1040C0000E941A16892BB1F4D11014C00E94541FFB
:1040D000C092F304DF91CF911F910F91FF90EF9069
:1040E000DF90CF90BF90AF909F908F907F906F9018
:1040F0005F9008959C2E75CF2F923F924F925F92C2
:104100006F927F928F929F92AF92BF92CF92DF92E7
:10411000EF92FF920F931F93CF93DF9300D000D0C5
:10412000CDB7DEB77C01942EFC012080318077244E
:104130007394411101C0712C70E0759567956A8385
:10414000292D30E06250710941E050E090E080E0BC
:104150000E94361F86E00E941A1666246394892BFB
:1041600009F0612CCC24CA944FE7D42E50ECA52E34
:1041700055E1B52E8091EB049091EC0495958795CF
:104180009C838B835B808C011127C801870D911D57
:1041900077FC9A9589199109712C97FD06C0833097
:1041A000910514F082E090E0782E0E940419272DEA
:1041B000072C000C330BC9010196E82FE295E07F34
:1041C000E9832C9DC0012D9D900D3C9D900D1124E7
:1041D000080F191F000F111F8CE49DE10E94771535
:1041E000B0926205A0926105F7014081518160E0C3
:1041F00080E00E94C21AF0E42F16F2E03F0661F45C
:104200004091F30486E0489FA00111244E505E4F78
:1042100060E086E30E94C21A4EE352E0698180E0CA
:104220000E94C21A88248394912C412C4394852D9A
:10423000840D87199A81891778F4F401EE0FFF1F16
:10424000E00FF11FEE0DFF1D40815181642D62953D
:10425000607F8CE00E94C21AEFEF8E1A9E0AF3E094
:104260004F12E4CF0E94BC178111B6CF662061F0D7
:1042700086E00E941A16892B39F06AE070E080E02F
:1042800090E00E942A17612C86E00E941A16892B62
:10429000E1F461101AC00E94541F852D0F900F90F9
:1042A0000F900F90DF91CF911F910F91FF90EF90A2
:1042B000DF90CF90BF90AF909F908F907F906F9046
:1042C0005F904F903F902F9008959B8053CF3F92E7
:1042D0004F925F926F927F928F929F92AF92BF9216
:1042E000CF92DF92EF92FF920F931F93CF93DF93C2
:1042F000CDB7DEB72E970FB6F894DEBF0FBECDBF99
:104300008091FD04882309F4A5C110920005109244
:10431000010510920205109203058090000590900F
:104320000105A0900205B0900305C090EE04D09066
:10433000EF04E090F004F090F104A7019601C501AC
:10434000B4010E9409372B013C0120E030E0A901B3
:104350000E941E3818160CF0A0C1C301B2010E94C1
:10436000EF378091E104882309F4B8C1C092C504F5
:10437000D092C604E092C704F092C804E12CF12C5C
:1043800000EA10E420E030E040E450E46E317105D2
:1043900040F0E12CF12C00E81FE320E030E040E0A9
:1043A0005FE360E070E080E391E40E949914809103
:1043B0004605882309F42AC10E945C176D837E8319
:1043C0008F83988780912E0590912F05A0913005BD
:1043D000B09131054D815E816F817885481B590B05
:1043E0006A0B7B0B80913A0590913B05A0913C05AF
:1043F000B0913D05481759076A077B0708F406C1C5
:10440000E0912805F091290580819181A281B381F5
:1044100089839A83AB83BC83E0912C05F0912D05B1
:104420009C01AD0160817181828193810E94093775
:104430004B015C01209136053091370540913805DC
:104440005091390569817A818B819C810E9409375D
:104450006B017C0120911C0530911D0540911E05CA
:1044600050911F05C501B4010E94A335209132056A
:104470003091330540913405509135050E940A373B
:104480002B013C0140923205509233056092340575
:10449000709235053090470531101AC020911805EB
:1044A0003091190540911A0550911B05C701B601BD
:1044B0000E94A3359B01AC01C301B2010E940937E0
:1044C00060933205709333058093340590933505DE
:1044D000409032055090330560903405709035055A
:1044E00010914205909143059E87A0914405AD87A8
:1044F00000914505212F392F4A2F502FC301B201BA
:104500000E941E3818160CF0CCC0812F9E85AD85F8
:10451000B02F8093320590933305A0933405B09368
:104520003505332009F4D6C02091180530911905BE
:1045300040911A0550911B05C501B4010E94A33595
:104540004B015C012091200530912105409122050D
:1045500050912305C701B6010E94A3359B01AC0110
:104560006091320570913305809134059091350545
:104570000E940937A50194010E940A376B017C0152
:104580009B01AC01612F7E858D85902F0E943D356A
:1045900087FD18C010913E0590913F059E87A09120
:1045A0004005AD8700914105212F392F4A2F502F0B
:1045B000B601C7010E943D3587FD04C01C2DDE8673
:1045C000ED860F2DE0912A05F0912B05812F9E8518
:1045D000AD85B02F80839183A283B38389819A8133
:1045E000AB81BC818093360590933705A093380545
:1045F000B09339058D819E81AF81B88580932E055A
:1046000090932F05A0933005B09331056091F70486
:104610007091F8048091F9049091FA040E94E837AF
:10462000CB012E960FB6F894DEBF0FBECDBFDF9143
:10463000CF911F910F91FF90EF90DF90CF90BF909F
:10464000AF909F908F907F906F905F904F903F9032
:104650000C94AD168091FC0460918A0170918B01DD
:1046600081110EC080910405909105052091FB04F5
:10467000BC01222329F060918501680F792F711DFB
:1046800090E080E00E944235609300057093010540
:10469000809302059093030540CEC301B201905868
:1046A0005ECE80913E0590913F05A0914005B0916E
:1046B000410589879A87AB87BC879C01AD01C301FF
:1046C000B2010E943D3587FF2CCF89859A85AB8545
:1046D000BC851FCF812C912C540134CF20E030E0D9
:1046E00040E05FE3C701B6010E940A379B01AC01BD
:1046F000C501B4010E941E3818164CF41092F7043C
:104700001092F8041092F9041092FA047FCF80E01E
:1047100090E0AFE7B3E48093F7049093F804A0939C
:10472000F904B093FA0472CF4F925F926F927F9226
:104730008F929F92AF92BF92CF92DF92EF92FF92B1
:10474000CF93DF938090D7049090D804A090D904A1
:10475000B090DA04C091F304D0E0C501B4010E9426
:10476000E8376B017C0120E030E048E453E4C50108
:10477000B4010E943D3593E0CC0FDD1F9A95E1F71F
:10478000CE5CDE4F87FF31C02881398150E040E0A8
:104790002551310941095109C701B6010E94283844
:1047A00028EC30E040E050E00E947736CA01B901C1
:1047B0006B5E7F4F8F4F9F4F0E9444356093EE0496
:1047C0007093EF048093F0049093F104DF91CF9104
:1047D000FF90EF90DF90CF90BF90AF909F908F9021
:1047E0007F906F905F904F9008954A805B80712C0E
:1047F000612C20E030E04CE853E4C501B4010E9494
:104800003D3587FF1FC088809980B12CA12CA7015E
:104810009601285C310941095109C301B2016819A7
:1048200079098A099B090E94283820E530E040E098
:1048300050E00E947736CA01B901680D791D8A1DC2
:104840009B1DBACF2C813D8150E040E024193509F1
:1048500046095709C701B60168517140810991099C
:104860000E94283820E530E040E050E00E94773692
:10487000CA01B901640D751D861D971D9DCFDF927C
:10488000EF92FF920F931F93CF93DF93EC01D62EFD
:104890001CAD0BAD7C0184E0E80EF11CE98DFA8DB6
:1048A000C7010995412F480F2D2D602FC7010E9488
:1048B000431A9BAD890F8BAF81E090E0DF91CF91E0
:1048C0001F910F91FF90EF90DF9008950F931F932A
:1048D000CF93DF938C01D0E0C0E0F801EC0FFD1F17
:1048E0006491662341F088E495E00E943F24892B7F
:1048F00011F02196F2CFCE01DF91CF911F910F9150
:104900000895682F88E495E00C943F247F928F925D
:104910009F92AF92BF92CF92DF92EF92FF920F934E
:104920001F93CF93DF93D0E0F12CE12C36E0932E50
:1049300040ECC42E45E1D42E50E3752E60E2862E65
:104940000E2D86E00E941A1611E0892B09F010E066
:1049500021E430E041E050E060E670E08FE190E07B
:104960000E94361F8091EB049091EC0495958795F9
:10497000C82F8F31C1F52FE530E041E050E060E60F
:1049800070E08FE190E00E94361FCFE50E9404198D
:104990008CE49DE10E947715D0926205C09261057A
:1049A00082E59FE00E94EB1AD09383057092840504
:1049B0008EE50E9481241092830580928405B12C9B
:1049C000A12CA016F0F48091F304F501989EE00D5F
:1049D000F11D1124EE50FE4F80810E9481248FEF43
:1049E000A81AB80AEECF803689F620E230E041E01E
:1049F00050E060E670E08FE190E00E94361FC0E278
:104A0000C5CFD0938305809284058C2F0E9481248A
:104A10000E94BC178111BCCF112361F086E00E9477
:104A20001A16892B39F06AE070E080E090E00E946D
:104A30002A1710E086E00E941A16892B09F092CFFF
:104A4000111190CF0091F304909E800111240E501B
:104A50001E4FF801EE0DFF1DC0830E94541F6AE037
:104A600070E080E090E00E942A17EFEFEE1AFE0A55
:104A7000D75FDD3209F064CFF8011582DF91CF9165
:104A80001F910F91FF90EF90DF90CF90BF90AF906C
:104A90009F908F907F900895089590E080E0089512
:104AA000FC0101900020E9F73197AF01481B590B39
:104AB000BC0188E495E00C94C4158F929F92AF924C
:104AC000BF920F931F93CF93DF93CDB7DEB7A1971C
:104AD0000FB6F894DEBF0FBECDBF19A2423008F466
:104AE0004AE08E010F5D1F4F842E912CB12CA12C1A
:104AF000A50194010E94D836E62FB901CA01EA3017
:104B0000F4F4E05DD801EE938D01232B242B252BAB
:104B100079F790E080E0109719F0CD010E945025C0
:104B2000A1960FB6F894DEBF0FBECDBFDF91CF9137
:104B30001F910F91BF90AF909F908F900895E95C67
:104B4000E1CF009711F00C94502590E080E008959B
:104B5000BC0190E080E04AE00C945D254F925F92AA
:104B60006F927F928F929F92AF92BF92CF92DF927D
:104B7000EF92FF920F931F93CF936B017C01742EE2
:104B8000AC019B010E942338882399F085E492E0D0
:104B9000CF911F910F91FF90EF90DF90CF90BF903A
:104BA000AF909F908F907F906F905F904F900C94FC
:104BB000502546015701E894B7F82FEF3FEF4FE734
:104BC0005FE7C501B4010E94233881110DC02FEFAA
:104BD0003FEF4FE75FE7C501B4010E943D3518166E
:104BE0001CF489E492E0D4CF2FEF3FEF4FE75FE46E
:104BF000C701B6010E941E3818161CF48DE492E01D
:104C0000C7CF2FEF3FEF4FE75FECC701B6010E9420
:104C10003D3587FDF3CF20E030E0A901C701B601A3
:104C20000E943D3510E000E087FF08C08DE20E9441
:104C300081248C01F7FAF094F7F8F094C0E060E07A
:104C400070E080E09FE37C1641F020E030E040E23D
:104C500051E40E947637CF5FF6CFA70196010E94FC
:104C60000A372B013C010E94EF374B015C014AE0FF
:104C70000E945D257C01E00EF11ECC2399F1C50157
:104C8000B4010E9442359B01AC01C301B2010E94F4
:104C900009374B015C018EE20E948124E80EF91E67
:104CA000C15000F120E030E040E251E4C501B40120
:104CB0000E94A3352B013C010E94EF374B01CB0131
:104CC0000E94A825E80EF91EB40190E080E00E9441
:104CD00042359B01AC01C301B2010E9409374B016F
:104CE0005C01DECFC701CF911F910F91FF90EF9034
:104CF000DF90CF90BF90AF909F908F907F906F90FC
:104D00005F904F900895CF92DF92EF92FF92CF93F2
:104D1000DF9397FF19C06B017C018DE20E94812413
:104D2000EC0166277727CB016C197D098E099F0955
:104D30004AE00E945D258C0F9D1FDF91CF91FF906F
:104D4000EF90DF90CF9008954AE0DF91CF91FF90F0
:104D5000EF90DF90CF900C945D251F93CF93DF935E
:104D6000EC01162F0E946136181739F0612FCE0121
:104D7000DF91CF911F910C946936DF91CF911F91F4
:104D80000895AF92BF92CF92DF92EF92FF920F936E
:104D90001F93CF93DF936091910182E090E00E9496
:104DA000AD266091900183E090E00E94AD26609175
:104DB0008B0184E090E00E94AD2660918A0185E03D
:104DC00090E00E94AD266091850186E090E00E940F
:104DD000AD266091F00187E090E00E94AD266091E1
:104DE000EF0188E090E00E94AD266091EE0189E03D
:104DF00090E00E94AD266091B6018AE090E00E94AA
:104E0000AD266091F6048BE090E00E94AD266091A3
:104E1000E1048CE090E00E94AD266091C9018DE034
:104E200090E00E94AD266091E0048EE090E00E9448
:104E3000AD266091DF048FE090E00E94AD26609186
:104E4000F30480E190E00E94AD266091720181E15F
:104E500090E00E94AD2682E1E82EF12C10E006E001
:104E6000809172011817B8F5109F60011124D0E0ED
:104E7000C0E0FE01EC0DFD1DEE50FE4F6081C7014C
:104E80008C0F9D1F0E94AD262196C630D10589F753
:104E9000670186E0C80ED11C88E0189FE00111244C
:104EA000CE5CDE4F8EE0E80EF11C69812296C601D1
:104EB0000E94AD26560182E0A80EB11CFE01329779
:104EC0006081C60101960E94AD266501AE14BF0443
:104ED00061F71F5FC5CFDF91CF911F910F91FF90B9
:104EE000EF90DF90CF90BF90AF9008958F929F92F8
:104EF000AF92BF92CF92DF92EF92FF92CF938FEF5C
:104F000090E00E94AD1683ED9EE00197F1F70E94BC
:104F1000BE1E90912302891731F08091230291E007
:104F20008927809323026AE08EE00E94561EBC010E
:104F300090E080E00E9442354B015C018AE00E94D3
:104F40001A169091BE04981729F091E09093F204FC
:104F50008093BE04809109019FEF980F90930901FF
:104F6000811106C00E94A71E9093F5048093F4045B
:104F70006091F7047091F8048091F9049091FA041B
:104F80000E94E837CB010E94AD16C090D704D090A4
:104F9000D804E090D904F090DA04A7019601C50185
:104FA000B4010E9409372DEC3CEC4CE45DE30E9417
:104FB000A335A70196010E940A376093D704709326
:104FC000D8048093D9049093DA040E9494236091CA
:104FD000FE047091FF0490E080E00E9442354B0196
:104FE0005C01C0900005D0900105E0900205F090B2
:104FF0000305A70196010E943D35811151C0209102
:10500000EE043091EF044091F0045091F104C50199
:10501000B4010E9409374B015C0120E030E0A90196
:105020000E941E38181694F520E030E040EA50E463
:10503000C501B4010E941E38181694F16091FE0457
:105040007091FF0490E080E00E944235A701960134
:105050000E9409374B015C0120E030E0A9010E9469
:105060001E38181664F520E030E040E85FE3C50123
:10507000B4010E943D35181664F1C701B6010E94C3
:10508000EF377093FF046093FE0423C020E030E00C
:1050900040EA50ECC501B4010E943D3587FFCECFF8
:1050A0006091EE047091EF048091F0049091F1040E
:1050B0000E94EF377093FF046093FE04BFCF20E09F
:1050C00030E040E85FEBC501B4010E941E3887FF65
:1050D000D4CF609104057091050590E080E00E94B6
:1050E00042352091EE043091EF044091F00450914C
:1050F000F1040E9409376B017C0120E030E0A90136
:105100000E941E3818160CF05EC0C701B6010E943E
:10511000EF376530710508F05AC080912202811185
:1051200005C08091F10181110E94541F81E080939C
:1051300022021092F1018091FE049091FF04853FBC
:1051400021E0920710F0109208012091080121112E
:1051500041C0843F9140F0F58FEF90E00E94AD1682
:105160000E94541FC1E0C09308010E94C31F0E9407
:10517000C126C093F2046AE08EE00E94561EBC0174
:1051800090E080E00E9442356093D7047093D80489
:105190008093D9049093DA041092EA0420910405D4
:1051A000309105054AE050E060E971E086E990E061
:1051B000CF91FF90EF90DF90CF90BF90AF909F90F6
:1051C0008F900C94361FC701B6019058A0CF109253
:1051D0002202B1CFCF91FF90EF90DF90CF90BF90A0
:1051E000AF909F908F9008950C9461362F923F92CC
:1051F0004F925F926F927F928F929F92AF92BF92E7
:10520000CF92DF92EF92FF920F931F93CF93DF9392
:10521000CDB7DEB761970FB6F894DEBF0FBECDBF36
:105220005C01FC016080718086E00E941A164424B3
:105230004394892B09F0412C90EC892E95E1992E0D
:1052400020E2322E3AE0232ECE0101966C0100912D
:10525000EB041091EC04159507950E9404198CE459
:105260009DE10E9477159092620580926105F5019B
:105270004081518160E080E00E94C21A1092830553
:10528000309284058EE392E00E94A125209283054E
:105290003092840501151105D1F58BE39FE00E9442
:1052A00066240E94BC178111DACF442061F086E0A9
:1052B0000E941A16892B39F06AE070E080E090E0D5
:1052C0000E942A17412C86E00E941A16892B09F0A9
:1052D000BECF4110BCCF0E94541FC80161960FB6CB
:1052E000F894DEBF0FBECDBFDF91CF911F910F911C
:1052F000FF90EF90DF90CF90BF90AF909F908F90F6
:105300007F906F905F904F903F902F900895C801CD
:105310000E94A82581E592E00E94A125F3E56F1681
:10532000F2E07F06A1F54AE0B601C8010E941335FC
:10533000F60101900020E9F7BF016C197D0990E0AA
:1053400080E00E9463397C01009729F0FC01108203
:10535000B6010E94293AC7010E942C1A582E81E5F5
:1053600092E00E942C1A580EE114F10419F0C701C2
:105370000E94DA3888E690E00E94771580916405F3
:10538000805E9AE0950D9093830580938405F501E6
:10539000828193810E94A12584CF1F920F920FB624
:1053A0000F9211242F933F938F939F93AF93BF93AB
:1053B0008091CA049091CB04A091CC04B091CD040B
:1053C0003091C90423E0230F2D3758F50196A11D14
:1053D000B11D2093C9048093CA049093CB04A09379
:1053E000CC04B093CD048091CE049091CF04A091D1
:1053F000D004B091D1040196A11DB11D8093CE04BB
:105400009093CF04A093D004B093D104BF91AF91F7
:105410009F918F913F912F910F900FBE0F901F90F2
:10542000189526E8230F0296A11DB11DD2CF1F9219
:105430000F920FB60F9211242F933F934F935F93C8
:105440006F937F938F939F93EF93FF9383B18170BB
:1054500029B19091D404981709F49DC030E0220F2F
:10546000232F221F330B922F8093D4044091D30417
:10547000241709F490C02093D3042091C3043091E1
:10548000C404981719F03195219531094091EB0426
:105490005091EC046091C1047091C204240F351F37
:1054A000261737070CF48BC02091C3043091C40435
:1054B000981719F03195219531094091EB045091DD
:1054C000EC046091BF047091C004240F351F621773
:1054D00073070CF46FC04091C3045091C404981733
:1054E00019F05195419551092091EB043091EC044C
:1054F000240F351F3093EC042093EB0441E0981304
:1055000040E02091D204421709F440C02091C30426
:105510003091C404981719F03195219531096091A3
:10552000EB047091EC04E091C104F091C204260FE9
:10553000371F2E173F070CF44CC02091C304309145
:10554000C404981719F03195219531096091EB0445
:105550007091EC04E091BF04F091C004260F371F56
:10556000E217F3078CF12091C3043091C40498171B
:1055700019F03195219531098091EB049091EC045B
:10558000820F931F9093EC048093EB044093D2041A
:1055900081E08093F204FF91EF919F918F917F9131
:1055A0006F915F914F913F912F910F900FBE0F9090
:1055B0001F9018952091BF043091C0049BCF20917B
:1055C000C1043091C20496CF8091BF049091C00471
:1055D000D9CF8091C1049091C204D4CF1895CF93B4
:1055E000DF93CDB7DEB72E970FB6F894DEBF0FBEB0
:1055F000CDBF789484B5826084BD84B5816084BD5C
:1056000085B5826085BD85B5816085BD80916E0060
:10561000816080936E001092810080918100826091
:1056200080938100809181008160809381008091CE
:1056300080008160809380008091B10084608093BD
:10564000B1008091B00081608093B00080917A00B9
:10565000846080937A0080917A00826080937A00DF
:1056600080917A00816080937A0080917A008068CE
:1056700080937A001092C10060E08EE00E94711663
:1056800060E08FE00E94711660E085E10E94711673
:1056900060E084E10E94711661E080E10E94711671
:1056A00061E084E00E94711661E085E00E9471165D
:1056B00061E089E00E94711662E087E00E94711645
:1056C00062E088E00E94711662E086E00E94711636
:1056D00062E08AE00E9471168FEF90E00E94AD16A2
:1056E00060E080E10E94431660E084E00E9443167F
:1056F00060E085E00E94431680917A008760809385
:105700007A0080917A00886080937A00789481E0B2
:1057100080936B00809368008BBB80915705883223
:1057200009F0D0C08FEF80936C0590E080E00E947C
:10573000F428182F81E090E00E94F428912F8C36F5
:10574000974E09F0CFC082E090E00E94F428182F15
:1057500083E090E00E94F428912F90939101809330
:10576000900184E090E00E94F428182F85E090E0FA
:105770000E94F428912F90938B0180938A0186E0F8
:1057800090E00E94F4288093850187E090E00E94D9
:10579000F4288093F00188E090E00E94F428809340
:1057A000EF0189E090E00E94F4288093EE018AE006
:1057B00090E00E94F4288093B6018BE090E00E9474
:1057C000F4288093F6048CE090E00E94F42891E0A5
:1057D000811101C090E09093E1048DE090E00E947F
:1057E000F42891E0811101C090E09093C9018EE00E
:1057F00090E00E94F42891E0811101C090E0909324
:10580000E0048FE090E00E94F42891E0811101C053
:1058100090E09093DF0480E190E00E94F428809370
:10582000F30481E190E00E94F428282E8093720115
:10583000A2E38A2EA1E09A2EB2EFAB2EB1E0BB2EEE
:1058400012E1E12EF12C312C231409F457C010E0A1
:1058500000E0C701800F911F0E94F428F501E00FBE
:10586000F11F80830F5F1F4F0630110591F767010D
:1058700086E0C80ED11C9EE0E90EF11C3401C60181
:105880000E94F428082F10E0102F0027F301118345
:1058900000832601F2E04F0E511CC60101960E94C2
:1058A000F428082BF301019311933F0162014E1478
:1058B0005F0429F73394F8E08F0E911C26E0A20EC6
:1058C000B11CC2CF823011F483E02DCF813009F4B6
:1058D0002ACF803309F029CF8FEF80936C05809316
:1058E0006D0523CF67EE90E080E00E94AD266CE668
:1058F00081E090E00E94AD260E94C1260E94091F0F
:105900000E94F11E0E94CD1D9093DE048093DD0461
:105910000E94A71E9093F5048093F4040E949B1E9E
:105920009093D6048093D504009190011091910139
:1059300010930505009304056AE08EE00E94561E50
:10594000BC0190E080E00E9442356093D7047093E0
:10595000D8048093D9049093DA040E94091E0E940F
:10596000942320E030E040EA51E46091EE0470912D
:10597000EF048091F0049091F1040E940A376B01CA
:105980007C01B80190E080E00E9442359B01AC01AF
:10599000C701B6010E943D3587FF04C090E080E05A
:1059A0000E94AD1610923E0510923F0510924005E0
:1059B00010924105412C512CEFE76E2EE3E47E2E30
:1059C000409242055092430560924405709245050D
:1059D000A0902A05B0902B0580914605F501C08066
:1059E000D180E280F380882309F4EEC6A3019201FE
:1059F000C701B6010E941E38181634F5F501408221
:105A00005182628273828090320590903305A0901B
:105A10003405B0903505C0904205D0904305E09024
:105A20004405F0904505A7019601C501B4010E9407
:105A30001E381816C4F4C0923205D0923305E09295
:105A40003405F09235051FC020E030E0A901C70100
:105A5000B6010E943D3587FFD6CFF5011082118235
:105A600012821382D0CFC0903E05D0903F05E090C7
:105A70004005F0904105A7019601C501B4010E94BF
:105A80003D3587FDD8CF81E08093460583B1817095
:105A90008093D40489B190E0880F892F881F990BD7
:105AA0008093D3042091D4049091D30481E02913EE
:105AB00080E08093D20498014AE050E060E971E010
:105AC00086E990E00E94361F0E945C1760930605ED
:105AD0007093070580930805909309050E94541F51
