:100000000C94F00C0C94180D0C94180D0C942E21DB
:100010000C94180D0C94180D0C94180D0C94180DCC
:100020000C94180D0C94180D0C94180D0C94180DBC
:100030000C94180D0C94180D0C94180D0C94180DAC
:100040000C94E4200C94180D0C94180D0C94180DBD
:100050000C94180D0C9405220C94180D0C94180D8A
:100060000C94180D0C94180D4465616374697661E5
:100070007465640053656C65637420546970004551
:100080006E74657220546970204E616D6500FFE0EA
:10009000FFD1AFFF32FFD0FFFEFFE0FFD1AEFFD0B8
:1000A000FFFEFFE0FFD11000FFFEFFD0FFE0FFC129
:1000B000FFD1AED580A83FD300408D142000A1C849
:1000C000DA1281CFD9F1DB402EA4A6AFFFD0FFFE1C
:1000D00000000000240027002A0000000000250086
:1000E00028002B0000000000230026002900040443
:1000F00004040404040402020202020203030303D0
:1001000003030102040810204080010204081020AB
:10011000010204081020506C6561736520776169E5
:10012000742E2E2E004144433A20200074656D70D9
:100130003A2000536574206D6561737572656400C3
:10014000537465703A200043616C6962726174692E
:100150006F6E002056005663633A20200020560040
:1001600056696E3A2000204300546D703A200046D4
:1001700069726D776172653A20003030300030303E
:100180003000560020484F4C440020484541540060
:10019000574F524B5900424F4F535400534C454513
:1001A000500020204F4646004552524F520000005A
:1001B0000008000201000003040700000000000026
:1001C000000000574DFBF12A000000002A3A002BE6
:1001D000F82A001717452507140082000383800FB3
:1001E00083E01FC7E00FC7E007C7C003EF8001EF40
:1001F0000000FE00F8FE3EFFFFFEFFFFFEFFFFFED9
:10020000FE7CFE80FE0201EF0003EF8007EFC007D7
:10021000C7C00FC7E01F83F00783C00183002323FB
:10022000AF3B0C000001E000000001E00000000115
:10023000E000000001E000000001E000000001E03B
:1002400000000001E000000001E000000001E0000B
:10025000000001E000000001E000000001E00000FB
:100260000001E000000001E000000001E0000000EB
:1002700001E00000FFFFFFFFE0FFFFFFFFE0FFFFE7
:10028000FFFFE0FFFFFFFFE00001E000000001E0F2
:1002900000000001E000000001E000000001E000BB
:1002A000000001E000000001E000000001E00000AB
:1002B0000001E000000001E000000001E00000009B
:1002C00001E000000001E000000001E0000000018A
:1002D000E000000C0F1E1203F80FF00FF00FE01FEC
:1002E000E01FC01FC03F803F803F007F007E007E38
:1002F000007C00FC00FC000F081013020BFFFEFF47
:10030000FEFFFEFFFEFFFEFFFEFFFEFFFE080808E9
:10031000120600FFFFFFFFFFFFFFFF132E8A1903E6
:10032000FD0007E00007E00007C0000FC0000FC09D
:10033000000F80001F80001F80001F80001F000032
:100340003F00003F00003E00007E00007E00007C79
:100350000000FC0000FC0000FC0000F80001F800B8
:1003600001F80001F00003F00003F00003F00007C3
:10037000E00007E00007E00007C0000FC0000FC06A
:10038000000F80001F80001F80001F80003F0000C2
:100390003F00003F00003E00007E00007E00007C29
:1003A0000000FC0000FC0000FC00001D2CB021023D
:1003B000FF001FC00000FFF80003FFFC0007FFFF65
:1003C000000FFFFF800FFFFF801FF0FFC03FC03F07
:1003D000C03FC03FE03F801FE07F801FF07F001FD5
:1003E000F07F000FF07F000FF0FF000FF0FF000F15
:1003F000F8FF000FF8FF000FF8FF000FF8FF000FE5
:10040000F8FF000FF8FF000FF8FF000FF8FF000FD4
:10041000F8FF000FF8FF000FF8FF000FF8FF000FC4
:10042000F8FF000FF87F000FF07F000FF07F000F44
:10043000F07F001FF07F801FF03F801FE03FC03F34
:10044000E03FC03FC01FF0FFC00FFFFF800FFFFF66
:100450000007FFFF0003FFFE0000FFF800001FC0C1
:1004600000122A7E210600003FC0007FC000FFC0AE
:1004700003FFC00FFFC03FFFC0FFFFC0FFFFC0FF73
:10048000FFC0FF3FC0FE3FC0F83FC0E03FC0003F9D
:10049000C0003FC0003FC0003FC0003FC0003FC0A1
:1004A000003FC0003FC0003FC0003FC0003FC00051
:1004B0003FC0003FC0003FC0003FC0003FC0003F02
:1004C000C0003FC0003FC0003FC0003FC0003FC071
:1004D000003FC0003FC0003FC0003FC0003FC00021
:1004E0003FC0003FC01D2BAC210200000FF00000F8
:1004F0007FFE0001FFFF0003FFFF8007FFFFC00F2B
:10050000FFFFE01FF83FF01FF01FF01FE00FF03F6C
:10051000C007F83FC007F83FC007F8000007F80021
:100520000007F800000FF800000FF000001FF000B7
:10053000001FF000003FE000007FE00000FFC0006F
:1005400001FF800003FF800007FF00000FFE000096
:100550001FFC00003FF800007FF00000FFE00001FA
:10056000FF800003FF00000FFE00001FFC00003FA3
:10057000F000007FE00000FFC00000FFFFFFF8FF79
:10058000FFFFF8FFFFFFF8FFFFFFF8FFFFFFF8FF97
:10059000FFFFF8FFFFFFF81C2CB02103FF007FC016
:1005A0000003FFF80007FFFC001FFFFF003FFFFFF5
:1005B000003FFFFF807FE0FFC07FC07FC0FF803F24
:1005C000C0FF001FE0FF001FE0FF001FE000001F52
:1005D000E000001FE000001FE000003FC000007FBF
:1005E000C00003FF80007FFF00007FFC00007FF061
:1005F00000007FF800007FFE00007FFF800000FF0A
:10060000C000003FE000001FE000001FE000000FFE
:10061000F000000FF000000FF0FF000FF0FF000FE0
:10062000F0FF000FF0FF001FE0FF801FE07FC03FE2
:10063000E07FE0FFC03FFFFF803FFFFF001FFFFEA6
:10064000000FFFFC0003FFF800007FC0001F2AA876
:100650002101000001FFC00001FFC00003FFC00036
:1006600007FFC00007FFC0000FFFC0000FFFC00062
:100670001FFFC0003FFFC0003FBFC0007F3FC00062
:10068000FF3FC000FE3FC001FE3FC001FC3FC00372
:10069000F83FC007F83FC007F03FC00FF03FC01F52
:1006A000E03FC01FC03FC03FC03FC03F803FC07F52
:1006B000803FC0FF003FC0FF003FC0FFFFFFFEFFC5
:1006C000FFFFFEFFFFFFFEFFFFFFFEFFFFFFFEFF3E
:1006D000FFFFFEFFFFFFFE00003FC000003FC00025
:1006E000003FC000003FC000003FC000003FC0000E
:1006F000003FC000003FC000003FC01D2BAC2102E6
:10070000FF7FFFFFE07FFFFFE07FFFFFE07FFFFF56
:10071000E07FFFFFE07FFFFFE07FFFFFE07F8000E3
:10072000007F8000007F8000007F8000007F8000CD
:10073000007F8000007F8000007F8000007F87F8BE
:10074000007F9FFE007FFFFF807FFFFFC07FFFFFD6
:10075000C07FFFFFE07FF03FF07FC01FF07F800F82
:10076000F07F800FF87F0007F8000007F80000070F
:10077000F8000007F8000007F8000007F80000077D
:10078000F0FF000FF0FF000FF0FF001FF0FF803FB1
:10079000E07FE0FFC07FFFFFC03FFFFF801FFFFF44
:1007A000000FFFFC0003FFF800007FC0001D2CB00D
:1007B0002102FF000FF000007FFC0000FFFF00039C
:1007C000FFFF8007FFFFC007FFFFE00FFC3FE01FB8
:1007D000F00FF01FE00FF03FC007F83FC007F83FF1
:1007E0008000007F8000007F8000007F8000007F0D
:1007F000000000FF03F800FF1FFE00FF3FFF00FFA7
:100800007FFF80FFFFFFC0FFFFFFE0FFF83FF0FF2B
:10081000E01FF0FFC00FF0FFC00FF8FF8007F8FFE8
:100820008007F8FF8007F8FF8007F8FF8007F87F50
:100830008007F87F8007F87F8007F07FC00FF03FC8
:10084000C00FF03FE01FE01FF83FE01FFFFFC00FA9
:10085000FFFF8007FFFF0003FFFE0000FFF800001E
:100860003FC0001C2AA8210300FFFFFFF0FFFFFF8D
:10087000F0FFFFFFF0FFFFFFF0FFFFFFF0FFFFFFC4
:10088000F0FFFFFFF000000FF000000FF000001F6E
:10089000F000001FE000003FE000003FC000007FCC
:1008A000C000007FC00000FF800000FF800001FF4B
:1008B000000001FF000001FE000003FE000003FE37
:1008C000000007FC000007FC00000FF800000FF814
:1008D00000001FF800001FF000001FF000003FE0C4
:1008E00000003FE000007FC000007FC00000FFC0AC
:1008F0000000FF800001FF800001FF000003FF00F7
:100900000003FF000003FE000007FE000007FC00DC
:10091000001D2CB02102FF003FF00001FFFE000788
:10092000FFFF800FFFFFC01FFFFFE03FFFFFF03F13
:10093000F87FF07FE01FF07FE01FF87FC00FF87FA7
:10094000C00FF87FC00FF87FC00FF87FC00FF83FCF
:10095000E01FF03FE01FF01FF87FE00FFFFFC00730
:10096000FFFF0001FFFC0000FFF80003FFFE000F87
:10097000FFFF801FFFFFC03FF03FE07FE01FE07FF1
:10098000C00FF07FC00FF0FF8007F8FF8007F8FF6F
:100990008007F8FF8007F8FF8007F8FF8007F8FF5F
:1009A000C00FF8FFC00FF87FE01FF07FF03FF07F2F
:1009B000FFFFE03FFFFFE01FFFFFC00FFFFF8003CF
:1009C000FFFE00007FF0001D2CB02102FF001FC0C1
:1009D0000000FFF80003FFFE0007FFFF000FFFFF0E
:1009E000801FFFFF803FE0FFC03FC03FE07F801FD0
:1009F000E07F801FE07F000FF0FF000FF0FF000F8F
:100A0000F0FF000FF0FF000FF8FF000FF8FF000FDE
:100A1000F8FF000FF8FF801FF87F801FF87FC03FAE
:100A2000F87FE0FFF83FFFFFF81FFFFFF81FFFF719
:100A3000F80FFFE7F803FFC7F800FE07F000000714
:100A4000F000000FF000000FF000000FF000000FAA
:100A5000E07F801FE07F801FE03F803FC03FC07F7E
:100A6000C03FE0FF801FFFFF800FFFFF0007FFFE7A
:100A70000003FFFC0001FFF000003FC000081D1D47
:100A8000130800FFFFFFFFFFFFFFFF000000000053
:100A90000000000000000000FFFFFFFFFFFFFFFF5E
:100AA00000121A00001803700390207F001A00182B
:100AB000000000000B0000FFFFFFFFFFFFFFFFFF34
:100AC000FF11103013010601C00001C00001C00079
:100AD00001C00001C00001C00001C000FFFF80FF95
:100AE000FF8001C00001C00001C00001C00001C0C2
:100AF0000001C00001C0000708080B03023E3E3E93
:100B00003E3EF0F0F00902040B010DFF80FF80056E
:100B100005050B0502F8F8F8F8F8FF11184813015D
:100B200002FFFF80FFFF80C00380C00380C00380FE
:100B3000C00380C00380C00380C00380C00380C0A6
:100B40000380C00380C00380C00380C00380C00353
:100B500080C00380C00380C00380C00380C00380C6
:100B6000FFFF80FFFF80FFFF80061818130702FCBD
:100B7000FC1C1C1C1C1C1C1C1C1C1C1C1C1C1C1CD5
:100B80001C1C1C1C1C1C1C111848130102FFFF809C
:100B9000FFFF8000038000038000038000038000CB
:100BA0000380000380000380000380000380FFFFB8
:100BB00080FFFF80C00000C00000C00000C0000037
:100BC000C00000C00000C00000C00000FFFF80FFA8
:100BD000FF80FFFF80111848130102FFFF80FFFF15
:100BE00080000380000380000380000380000380F6
:100BF0000003800003800003800003801FFF801F2C
:100C0000FF80000380000380000380000380000356
:100C100080000380000380000380FFFF80FFFF80CF
:100C2000FFFF80111848130102C00380C00380C079
:100C30000380C00380C00380C00380C00380C00362
:100C400080C00380C00380C00380FFFF80FFFF805F
:100C50000003800003800003800003800003800005
:100C600003800003800003800003800003800003F2
:100C700080111848130102FFFF80FFFF80C00000B1
:100C8000C00000C00000C00000C00000C00000C0E4
:100C90000000C00000C00000FFFF80FFFF800003D5
:100CA0008000038000038000038000038000038035
:100CB000000380000380FFFF80FFFF80FFFF8011A3
:100CC0001848130102FFFF80FFFF80C00000C00032
:100CD00000C00000C00000C00000C00000C0000054
:100CE000C00000C00000FFFF80FFFF80C00380C085
:100CF0000380C00380C00380C00380C00380C003A2
:100D000080C00380FFFF80FFFF80FFFF801018304E
:100D1000130202FFFFFFFF000700070007000700A4
:100D2000070007000700070007000700070007008B
:100D3000070007000700070007000700070007007B
:100D4000070007111848130102FFFF80FFFF80C052
:100D50000380C00380C00380C00380C00380C00341
:100D600080C00380C00380C00380FFFF80FFFF803E
:100D7000C00380C00380C00380C00380C00380C064
:100D80000380C00380C00380FFFF80FFFF80FFFF60
:100D900080111848130102FFFF80FFFF80C003800D
:100DA000C00380C00380C00380C00380C00380C034
:100DB0000380C00380C00380FFFF80FFFF8000032B
:100DC0008000038000038000038000038000038014
:100DD000000380000380FFFF80FFFF80FFFF80058E
:100DE00010100B0502F8F8F8F8F8000000000000F9
:100DF000F8F8F8F8F80710100B03023E3E3E3E3EAE
:100E00000000003E3E3E3E3EF0F0F0FFFFFFFFFFE1
:100E1000FFFFFFFFFFFFFFFFFFFFFFFFFFFFFFFFE2
:100E2000FFFFFFFFFFFFFFFFFFFFFFFFFFFFFFFFD2
:100E3000FFFFFFFFFFFFFFFFFFFFFFFFFFFFFFFFC2
:100E4000FFFFFFFFFFFFFFFFFFFFFFFFFFFFFF00B1
:100E5000090F00FD0A01E803D820FFFD0CFD0BFD82
:100E600000000009000C010B0B0904008080808049
:100E70008080800000808004030309030790909025
:100E80000608080901014848FC4848FC4848070B87
:100E90000B0901FF107C929050381412927C1007BD
:100EA0000A0A09010042A4A4481010244A4A8407EF
:100EB0000A0A09010060909090606294889462012F
:100EC0000303090407808080030C0C0903FF204002
:100ED00040808080808080404020030C0C0903FF0C
:100EE0008040402020202020204040800707070924
:100EF000010310925438549210070707090101109A
:100F00001010FE1010100205050904FDC0C040407D
:100F100080070101090104FE020202090400C0C0A9
:100F2000070A0A090100020404081010204040804A
:100F3000070A0A0901003844828282828282443888
:100F4000070A0A090100103050901010101010FE0E
:100F5000070A0A0901007C8282040810204080FEF2
:100F6000070A0A090100FE0204081C020202827C30
:100F7000070A0A090100040C14244484FE04040432
:100F8000070A0A090100FE8080BCC2020202827CBC
:100F9000070A0A0901003C408080BCC28282827C30
:100FA000070A0A090100FE020404080810102020A4
:100FB000070A0A09010038448244384482824438CE
:100FC000070A0A0901007C828282867A020204787A
:100FD000020707090400C0C0000000C0C0020A0ADE
:100FE0000904FDC0C0000000C0C0404080050A0ADE
:100FF00009020008102040808040201008070404E7
:10100000090102FE0000FE050A0A090200804020D4
:1010100010080810204080070A0A0901007C82821B
:1010200002040810100010070A0A0901007C8282DD
:101030009EA2A69A80807C070A0A09010010284413
:10104000828282FE828282070A0A090100F8848273
:1010500084F884828284F8070A0A0901007C82806D
:101060008080808080827C070A0A090100F88482DF
:10107000828282828284F8070A0A090100FE808047
:1010800080F880808080FE070A0A090100FE8080C7
:1010900080F88080808080070A0A0901007C8280B5
:1010A00080808E8282827C070A0A09010082828205
:1010B00082FE8282828282050A0A090200F82020CA
:1010C000202020202020F8080A0A0901001F04041B
:1010D00004040404048478070A0A0901008284884D
:1010E00090E0A090888482070A0A0901008080802D
:1010F000808080808080FE070A0A0901008282C603
:10110000AAAA9292828282070A0A0901008282C2F6
:10111000A2928A86828282070A0A0901007C828260
:101120008282828282827C070A0A090100FC828212
:1011300082FC8080808080070C0C0901FE7C82820A
:1011400082828282A2927C0806070A0A090100FCB8
:10115000828282FC9088848282070A0A0901007CCC
:10116000828280700C0282827C070A0A090100FEDA
:10117000101010101010101010070A0A0901008238
:1011800082828282828282827C070A0A090100822C
:10119000828244444428282810070A0A0901008250
:1011A00082828292929292AA44070A0A09010082DC
:1011B000824428101028448282070A0A090100820A
:1011C000824428101010101010070A0A090100FEAE
:1011D0000204081020408080FE040C0C0903FFF07C
:1011E00080808080808080808080F0070A0A0901EA
:1011F0000080404020101008040402040C0C090276
:10120000FFF010101010101010101010F007040450
:10121000090106102844820801010900FFFF0303A9
:10122000030903088040200707070901007C020228
:101230007E82867A070A0A090100808080BCC28209
:101240008282C2BC0707070901007C8280808082FD
:101250007C070A0A0901000202027A8682828286DB
:101260007A0707070901007C8282FE80807C070ADA
:101270000A0901001C22222020F820202020070A31
:101280000A0901FD7A84848478807C82827C070A42
:101290000A090100808080BCC28282828282050AA3
:1012A0000A090200600000E02020202020F8060D3E
:1012B0000D0901FD0C00001C040404040484848452
:1012C00078070A0A090100808080828CB0C0B08C47
:1012D00082050A0A090200E0202020202020202088
:1012E000F8070707090100EC929292929282070791
:1012F00007090100BCC282828282820707070901B6
:10130000007C82828282827C070A0A0901FDBCC2BB
:10131000828282C2BC808080070A0A0901FD7A8627
:10132000828282867A0202020707070901009C6214
:1013300042404040400707070901007C82807C0250
:10134000827C0709090901002020FC20202020229E
:101350001C0707070901008484848484847A0707B2
:101360000709010082824444282810070707090161
:10137000008282929292AA440707070901008244E0
:101380002810284482060A0A0901FD848484848482
:101390008C74048478070707090100FE04081020F4
:1013A00040FE050C0C0903FF3840404020C0C0201F
:1013B00040404038010C0C0904FF80808080808010
:1013C000808080808080050C0C0901FFE0101010E7
:1013D00020181820101010E007030309010762927B
:1013E0008CFFFFFFFFFFFFFFFFFFFFFFFFFFFFFF80
:1013F000FFFFFFFFFFFFFFFFFFFFFFFFFFFFFFFFFD
:10140000FFFF00000009000C010B0B0904008080A5
:101410000000808080808080800608080901000824
:10142000789490A0A47840070A0A0901001C2220A1
:1014300020F8202060A25C070606090103827C4494
:10144000447C82070A0A090100828244287C107CBD
:10145000101010010B0B0904FF8080808080008039
:1014600080808080040B0B0902FF60908060909068
:101470009060109060050202090209888808090935
:101480000900013C4299A5A1A599423C050707091D
:101490000103609070907800F807080809010112B4
:1014A00024489090482412060404090102FC040414
:1014B00004050101090204F80809090900013C4278
:1014C000B9A5B9A9A5423C060101090109FC04041A
:1014D00004090306609090600709090901011010D2
:1014E00010FE10101000FE040606090104609010A2
:1014F0006080F004060609010460902010906003EB
:1015000003030903082040800709090901FE8282BC
:10151000828282C6BA8080070A0A0901007E8A8A0E
:101520008A7A0A0A0A0A0A020202090404C0C004EA
:1015300003030902FD30906003060609010440C060
:10154000404040E00506060901047088887000F8F4
:101550000708080901019048241212244890070A3C
:101560000A09010040C0404042E60A121A06070A72
:101570000A09010040C040404CF2020C101E070A4C
:101580000A0901006090201092660A121A06070AE2
:101590000A0901001000101020408082827C070C94
:1015A0000C0901004020100038448282FE828282B1
:1015B000070C0C0901000408100038448282FE82E6
:1015C0008282070C0C0901001028440038448282F2
:1015D000FE828282070B0B090100629C0038448264
:1015E00082FE828282070B0B0901004444003844CA
:1015F0008282FE828282070B0B0901003844382860
:10160000448282FE828282070A0A0901006E90905B
:101610009090FC9090909E070D0D0901FD7C8280BA
:101620008080808080827C184830070C0C09010083
:1016300040201000FE404078404040FE070C0C095E
:10164000010004081000FE404078404040FE070CB6
:101650000C09010010284400FE404078404040FE44
:10166000070B0B090100444400FE40407840404015
:10167000FE050C0C09020080402000F820202020EC
:101680002020F8050C0C09020008102000F820208A
:1016900020202020F8050C0C09020020508800F8BA
:1016A000202020202020F8050B0B0902008888004C
:1016B000F8202020202020F8080A0A0900007C4297
:1016C0004141E1414141427C070B0B090100629C11
:1016D0000082C2A292928A8682070C0C0901004005
:1016E0002010007C8282828282827C070C0C09019D
:1016F00000040810007C8282828282827C070C0CAB
:10170000090100102844007C8282828282827C0748
:101710000B0B090100629C007C8282828282827CA7
:10172000070B0B0901004444007C82828282828282
:101730007C07070709010182442810284482070C0E
:101740000C0901FF027C868A8A9292A2A2C27C8046
:10175000070C0C09010040201000828282828282E4
:10176000827C070C0C09010004081000828282822E
:101770008282827C070C0C090100102844008282BE
:1017800082828282827C070B0B0901004444008222
:101790008282828282827C070C0C0901000408107C
:1017A000008282442810101010070A0A09010080E4
:1017B00080FC828282FC808080060A0A090100384F
:1017C000444448D04844444458070B0B09010020C6
:1017D0001008007C02027E82867A070B0B0901004A
:1017E000040810007C02027E82867A070B0B090136
:1017F00000102844007C02027E82867A070A0A09C9
:101800000100324C007C02027E82867A070A0A09B5
:1018100001004444007C02027E82867A070B0B0999
:101820000100182418007C02027E82867A070707CE
:101830000901006C92127C90926E070A0A0901FD60
:101840007C82808080827C184830070B0B09010065
:10185000402010007C8282FE80807C070B0B0901F7
:1018600000040810007C8282FE80807C070B0B093C
:101870000100102844007C8282FE80807C070A0AD6
:101880000901004444007C8282FE80807C050B0BB1
:1018900009020080402000E02020202020F8050BD5
:1018A0000B09020010204000E02020202020F80634
:1018B0000B0B090100205088007010101010107CD4
:1018C000050A0A090200909000E02020202020F85C
:1018D000070B0B090100483050087C82828282820B
:1018E0007C070A0A090100629C00BCC282828282D3
:1018F00082070B0B090100402010007C828282824B
:10190000827C070B0B090100040810007C82828294
:1019100082827C070B0B090100102844007C828224
:101920008282827C070A0A090100629C007C828212
:101930008282827C070A0A0901004444007C828278
:101940008282827C07090909010010381000FE001C
:101950001038100709090901FF027C8A8A92A2A2A5
:101960007C80070B0B0901004020100084848484D4
:1019700084847A070B0B0901000408100084848416
:101980008484847A070B0B090100102844008484A6
:10199000848484847A070A0A090100484800848400
:1019A000848484847A060E0E0901FD0810200084C8
:1019B000848484848C74048478070C0C0901FD8071
:1019C0008080BCC28282C2BC808080060D0D09016D
:1019D000FD48480084848484848C74048478E329DA
:1019E00011241FBECFEFD8E0DEBFCDBF14E0A0E0D2
:1019F000B1E0E8E5FBE502C005900D92AC30B1071F
:101A0000D9F725E0ACE0B4E001C01D92A035B207E3
:101A1000E1F71CE0C0EFDCE004C02197FE010E946A
:101A2000A42DCF3ED107C9F70E9406220C94AA2DFF
:101A30000C9400004F925F926F927F928F929F92D0
:101A4000AF92BF92CF92DF92EF92FF920F931F93CC
:101A5000CF93DF9300D000D0CDB7DEB74B015C0150
:101A600029013A016701780120E030E0A9010E94D4
:101A7000BE2B87FDA6C020E030E0A901C301B20162
:101A80000E94BE2B87FD9DC020E030E0A901C80167
:101A9000B6010E94BE2B87FD94C081E02091F00426
:101AA0003091F1042130310509F080E08093110577
:101AB0008092D6049092D704A092D804B092D90410
:101AC0004092DA045092DB046092DC047092DD04F0
:101AD000C092DE04D092DF04E092E004F092E104D0
:101AE00060910405709105058091060590910705A8
:101AF0000E946B2C20E030E04AE754E40E94C32BA4
:101B000069837A838B839C838092E2049092E304BE
:101B1000A092E404B092E5049B01AC01C301B201C0
:101B20000E94222D2B013C014092E6045092E704D2
:101B30006092E8047092E90429813A814B815C81CA
:101B4000C701B6010E94C32B6B017C01C092EA045D
:101B5000D092EB04E092EC04F092ED048091EE045C
:101B60009091EF04019769F5A501940160E070E0A0
:101B7000CB010E94512B6093E2047093E3048093A5
:101B8000E4049093E504A301920160E070E0CB01CE
:101B90000E94512B6093E6047093E7048093E8045D
:101BA0009093E904A701960160E070E0CB010E94E8
:101BB000512B6093EA047093EB048093EC049093B0
:101BC000ED040F900F900F900F90DF91CF911F9128
:101BD0000F91FF90EF90DF90CF90BF90AF909F90CC
:101BE0008F907F906F905F904F90089580E0089560
:101BF00020911A0530911B052817390799F1909308
:101C00001B0580931A05009739F120912D05FC01E1
:101C1000211129C03596E491E0932E050C96FC0124
:101C2000849180932F0580912E05082E000C990B2E
:101C300020912F05821B910927FD93952091300556
:101C4000203441F0829FC001112426E096958795AB
:101C50002A95E1F78093310586EF9DE090932C055E
:101C600080932B050895213031F43F96E491E09361
:101C70002E054096D4CF3D96E491E0932E050E9626
:101C8000CECFFC01808D8F5F0895AF92BF92CF922F
:101C9000DF92EF92FF920F931F93CF93DF936C012C
:101CA0007B018B01040F151FEB015E01AE18BF080D
:101CB000C017D10759F06991D601ED91FC910190BF
:101CC000F081E02DC6010995892B79F7C501DF91D7
:101CD000CF911F910F91FF90EF90DF90CF90BF9029
:101CE000AF900895833081F028F4813099F08230EC
:101CF000A9F008958730A9F08830C9F08430B1F494
:101D0000809180008F7D03C0809180008F778093C9
:101D10008000089584B58F7784BD089584B58F7D44
:101D2000FBCF8091B0008F778093B00008958091B1
:101D3000B0008F7DF9CFCF93DF93282F30E0F901EA
:101D4000E255FE4F8491F901EE5FFE4FD491F90107
:101D5000E251FF4FC491CC23A1F081110E94720E79
:101D6000EC2FF0E0EE0FFF1FEC51FF4FA591B49167
:101D7000EC91ED2381E090E009F480E0DF91CF91D8
:101D8000089580E090E0FACF1F93CF93DF93282F40
:101D900030E0F901E255FE4F8491F901EE5FFE4F0C
:101DA000D491F901E251FF4FC491CC23A9F0162F31
:101DB00081110E94720EEC2FF0E0EE0FFF1FE65231
:101DC000FF4FA591B4918FB7F894EC91111108C011
:101DD000D095DE23DC938FBFDF91CF911F910895C3
:101DE000DE2BF8CFCF93DF9390E0FC01EE5FFE4F48
:101DF000249182519F4FFC0184918823C9F090E087
:101E0000880F991FFC01E053FF4FA591B491FC018D
:101E1000E652FF4FC591D49161110DC09FB7F89460
:101E20008C91209582238C938881282328839FBFBF
:101E3000DF91CF910895623051F49FB7F8943C91AF
:101E4000822F809583238C93E8812E2BEFCF8FB741
:101E5000F894EC912E2B2C938FBFEACFCF93DF9386
:101E6000EC0161E089E00E94F20E209731F460E01D
:101E700089E0DF91CF910C94C40ECF3FD10511F4CE
:101E800061E0F6CFE7EBF1E0E491E33029F140F4D3
:101E9000E130B1F0E230D9F0C038D1058CF7E7CFAE
:101EA000E73021F1E83051F1E430B1F78091800062
:101EB000806280938000D0938B00C0938A0004C01E
:101EC00084B5806884BDC7BDDF91CF91089584B586
:101ED000806284BDC8BDF8CF809180008068809307
:101EE0008000D0938900C0938800EECF8091B0002D
:101EF00080688093B000C093B300E6CF8091B000BB
:101F000080628093B000C093B400DECF3FB7F894F6
:101F100080919C0490919D04A0919E04B0919F0497
:101F200026B5A89B05C02F3F19F00196A11DB11D34
:101F30003FBFBA2FA92F982F8827BC01CD01620F70
:101F4000711D811D911D42E0660F771F881F991F2B
:101F50004A95D1F708958F929F92AF92BF92CF92F8
:101F6000DF92EF92FF924B015C010E94860F6B01A2
:101F70007C010E94860F6C197D098E099F09683EBD
:101F8000734081059105A8F321E0821A9108A10808
:101F9000B10888EEC80E83E0D81EE11CF11C811444
:101FA0009104A104B10429F7FF90EF90DF90CF9046
:101FB000BF90AF909F908F9008952FB7F894609145
:101FC00098047091990480919A0490919B042FBF7A
:101FD0000895089580E00895DC011696ED91FC9136
:101FE000179712968C91481B477081E090E001C0D2
:101FF000880F4A95EAF7E60FF11D3081222319F088
:10200000832B8083089580958323FBCFFB0141813F
:10201000DC0112962C911297421768F013962C91BE
:102020001397241740F0608115962C91621718F4CD
:1020300024810C94EC0F0895FC0180819281980F0B
:1020400092832181921760F494819F5F948393819E
:10205000890F821710F08FEF820F838381E008953C
:1020600080E00895FC011282808181508383148274
:102070000895DB01ED91FC9109940F931F93CF9389
:10208000E0912405F0912505309719F086E195E05F
:1020900009950091180510911905E0914705F091F7
:1020A000480582E00995E0914705F091480581E0F7
:1020B000099530E020E045E1B80186E195E00E9415
:1020C0003910C82F882341F029E435E047E1B801F1
:1020D00086E195E00E943910E0914705F0914805AE
:1020E00080E009958C2FCF911F910F910895CF9388
:1020F000DF931F92CDB7DEB79E012F5F3F4F47E4BE
:102100000E94391089810F90DF91CF910895CF936C
:10211000DF931F92CDB7DEB79E012F5F3F4F46E49E
:102120000E94391089810F90DF91CF910895BF925D
:10213000CF92DF92EF92FF920F931F93CF93DF9393
:102140008C01D42EE901FB01E280F380F2E34F170A
:1021500009F476C0F417C8F08CE2481709F470C08F
:10216000EDE24E17E9F0F7E14F1779F19E014D2DA1
:10217000B701C801DF91CF911F910F91FF90EF90B0
:10218000DF90CF90BF900C94391086E4481709F483
:102190004CC0E7E44E1709F44EC0FBE34F13E6CF03
:1021A000B701C8010E947710C980C094C80EB7015A
:1021B000C8010E94871098819095890F8883C982F1
:1021C0008B818E5F83708B834BC047E1B701C80161
:1021D0000E943910B701C8010E948710BA80B094DC
:1021E000B80EB701C8010E948710D880D094D80ECD
:1021F000B701C8010E947710CB80C094C80EB70108
:10220000C8010E94771099819095890FB882C98280
:10221000DA828B8381E0DF91CF911F910F91FF9044
:10222000EF90DF90CF90BF900895B701C8010E9452
:1022300087108883EFCFB701C8010E947710F9CFCC
:10224000B701C8010E947710C980C094C80EB701B9
:10225000C8010E94871098819095890F8883C98250
:102260009E014D2DB701C8010E943910D3CFCF93E5
:10227000DF93EC016A817B810E94871088836A81E9
:102280007B81CE010E94771089836A817B8130E057
:1022900020E048E4CE010E9439108B879E012D5C1E
:1022A0003F4F6A817B8147E1CE01DF91CF910C9452
:1022B0003910CF93DF93C0911805D0911905E091A3
:1022C0004705F091480582E0099530E020E04AE0BA
:1022D000BE0186E195E00E943910C82FE0914705C4
:1022E000F091480583E00995E0914705F091480594
:1022F00080E00995CC2329F086E195E00E94371112
:10230000C1E08C2FDF91CF910895CF93DF9380911F
:102310004F05811105C081E080934F050E9459113E
:10232000C0911805D0911905E0914705F091480535
:1023300082E00995E0914705F091480581E0099513
:1023400030E020E044E1BE0186E195E00E943910D2
:1023500029E435E047E1BE0186E195E00E943910AD
:10236000E0914705F091480580E0DF91CF91099415
:102370000B96FC01849108950A96FC0184910895BE
:10238000FC01849108950E94C011882321F08230BD
:1023900011F083E0089586E00895FC01E60FF11D39
:1023A000849190E0982F88273196E4918E0F911DAB
:1023B000089568E00C94CD1166E00C94CD115F9205
:1023C0006F927F928F929F92AF92BF92CF92DF9245
:1023D000EF92FF920F931F93CF93DF93EC01E62EC2
:1023E000F42EC22E0C811D81C8010E94C011D82E6E
:1023F0008C819D810E94C311982E21E0AA24AA9469
:10240000D21202C02FE0A22E8C819D810E94BC11AD
:10241000D82E8C819D810E94B811B82E8C819D810F
:102420000E94D911E0E6EC1578F4009769F0080FE6
:10243000191F91E6D92EBC14C0F4188A1B8A1C8A75
:10244000198A1A8A80E0A0C08C819D810E94DC11CB
:10245000F0E4FC1538F4009729F0080F191F81E407
:10246000D82EE9CF0F5E1F4FE6CFBD1430F3892D74
:1024700090E0F80124912F3F31F40F5F1F4FBD14FE
:10248000E1F2D394F6CFCD1072C08C819D810E9471
:10249000C01198012F5F3F4FF801882319F0823057
:1024A00009F04EC084918B8BF90124912C8BF8019B
:1024B0003396E491E88BF8013496E491E98BF801C6
:1024C0003596E491EA8B0115110509F4BBCF8C8197
:1024D0009D810E94C3113C89F31A9A89F91A9FEFD2
:1024E000930F9F0D2CA94EA94F1508F449C09217C0
:1024F00018F49F1508F047C02B899989E90E9FEFC2
:10250000920F9E0D4BA95DA95E1508F44DC094175E
:1025100018F49E1508F037C0080F111D295F722EA0
:102520007694769476946F2C630E5E01FCE1AF0E88
:10253000B11C872C912CF61431F15E2C68014AC035
:102540008491982F9F7092509A8B82958F70898B6F
:10255000F9012491822F8F708C8B22952F702B8BF9
:10256000F8013296E491E295EF70E88BACCF3296A9
:10257000E491EA21E80FF92FF11D0E0F1F1F7FCF05
:10258000921708F0B6CF8889DF91CF911F910F91F4
:10259000FF90EF90DF90CF90BF90AF909F908F9083
:1025A0007F906F905F900895941708F0B2CFEBCFB3
:1025B000F60184916A817B815C8EFD8E1F8E8E8FE9
:1025C00095014BE3CE010E943910FFEFCF1ADF0ACD
:1025D00028E0520E8C2D801B871550F3080D191D15
:1025E000F394A9CFEF92FF920F931F93CF93DF93B2
:1025F000F82E062FE42E152FE0912B05F0912C05D7
:1026000086E195E00995080FCE2DD12F10E0299194
:10261000211108C0812FDF91CF911F910F91FF9061
:10262000EF900895402F6F2D86E195E00E94DF1115
:10263000F80E180FECCF0F931F93CF93DF938C01FD
:10264000E0912B05F0912C0586E195E00995D82FB6
:10265000C0E0F8012491222351F04D2F6C2F86E128
:1026600095E00E94DF11C80F0F5F1F4FF2CF8C2F34
:10267000DF91CF911F910F9108952EE93FE00097D0
:1026800009F40895F9013197F1F70197F8CFCF9345
:10269000DF9300D0CDB7DEB720ED37E03A83298352
:1026A0009091BC00982311F081E00FC029813A81FC
:1026B000232B81F48091D50481FDF6CF8091D40441
:1026C00081110DC091E09093D4040F900F90DF9191
:1026D000CF91089529813A8121503109DFCF80E0DF
:1026E000F4CF84EA8093BC0061E080E80E94471345
:1026F000811102C080E008958091B900887F883000
:1027000051F0803141F08091D4048111F3CF82E007
:102710008093D404EFCF88E78093BB0084E8809354
:10272000BC0062E080E80E944713882319F380917F
:10273000D50481FD05C08091B900887F883119F7E3
:1027400081E0089584E98093BC0064E080E10C940A
:1027500047138093BB0084E88093BC0063E080E86B
:102760000E9447138823A1F08091D50481FD0DC0FC
:102770008091B900887F883241F08091D404811122
:1027800006C092E09093D404089581E0089580E01B
:1027900008951092D40408958093D5041092B9003E
:1027A00084FF05C08CE08093B8000C94C91388E4C2
:1027B000FACFCF93DF93FC0123A5222389F0EC010C
:1027C0000E947113811104C080E0DF91CF910895C0
:1027D0008EA1811107C00E94A9138823A9F31BA60B
:1027E00081E0F3CF80E4F7CF0F931F93CF93DF9374
:1027F000C62FD42F8901633001F138F4613099F08C
:10280000623009F449C0C1E012C0663029F1673076
:1028100091F16530C1F70E94D913811117C00E9450
:10282000A213C0E004C0FC0186A50E94CC138C2F2B
:10283000DF91CF911F910F910895FC0116A221E025
:1028400023A74111E0CF0E94A213DDCF8D2F0E945C
:10285000A9138111D8CFE3CF0E94D9138823F9F2AD
:10286000DD2389F2F80181918F010E94A913882349
:10287000B1F2D150F5CF0E94D913882381F2DD2324
:1028800011F2F80184910E94A913C82F882379F2CC
:102890000F5F1F4FD150F3CFFC0146A321E023A7C8
:1028A000B2CFDB011496ED91FC9130E020E065E0C1
:1028B0000994DB011496ED91FC9130E020E062E098
:1028C0000994DB011496ED91FC9130E020E063E087
:1028D0000994CF92DF92EF92FF920F931F93CF93C1
:1028E000DF938C017B016A0180E0F601C4918111C4
:1028F00010C081E0CF3F49F04C2FB701C8010E94C2
:102900005114882309F444C080E0BFEFCB1ADB0ADE
:10291000ECCF4FEFCF3F89F3CE3FD9F1C03FA0F7C7
:10292000C03E38F04C2F4F70B701C8010E945914B7
:10293000EBCFC03D38F04C2F4F70B701C8010E945B
:102940006114E2CFC03CF8F0D7011496ED91FC91F0
:1029500030E020E040E064E0C8010995C295C07F06
:10296000CE5FD0E0CE010E943D13D7011496ED91C9
:10297000FC9130E020E041E064E0C8010995CE011F
:102980000E943D13C1CFC7FDBFCF8C2F90E0F8CF81
:1029900080E0DF91CF911F910F91FF90EF90DF903A
:1029A000CF900895AF92BF92CF92DF92FF920F9394
:1029B0001F93CF93DF936C018B01F42EE90180E12B
:1029C000481709F47EC0841778F1AAE04A1709F481
:1029D00061C0BFE04B1709F47FC0F8010281138189
:1029E000F2E3FF1609F4DDC0FF1508F48EC085E19F
:1029F000F81609F4DBC0A7E1FA1609F4ECC0B4E15B
:102A0000FB1265C0D8011696ED91FC9117971596AB
:102A10008C918E0F9F2F911D11928E179F07E1F7BA
:102A2000C8010E94321053C0E1E14E1709F451C0B1
:102A3000F5E14F13D2CFFB01A280B38042EA50E010
:102A4000C6010E946914D50114964C91406BB801DF
:102A5000C6010E94511441E0B801C6010E945914F8
:102A6000F50126813781D8011496ED91FC91D501AD
:102A700015964C9166E0C601099581111CC080E055
:102A8000DF91CF911F910F91FF90DF90CF90BF907A
:102A9000AF900895DB011496ED91FC9130E020E0B9
:102AA00042E061E0C60109954AEA50E0B801C6017A
:102AB0000E94691492CF40E0B801C6010E946114DF
:102AC0008CCF49E950E0B801C6010E94691481E049
:102AD000D7CF4EE850E0F7CF41E0C6010E94611425
:102AE00040E0B801C6010E94591441E8B801C6018E
:102AF0000E9451144881B801C6010E94511440E05F
:102B0000B801C6010E946114E2CFE6E4FE1609F4A2
:102B10006CC0F7E4FF1609F46DC08BE3F812D7CF51
:102B200099818B8138E0390F813031F0833011F099
:102B3000392F02C0392F985021E0D80113964C91BB
:102B4000491708F420E041E0391708F040E091E02F
:102B5000F8015281351708F490E0322F342B93237B
:102B600019F4242309F4B3CFFA80D12CC12C84307A
:102B700048F490E0FC01E45DFD4FC080885D9D4F0E
:102B8000DC01DC90F7FE04C0BE01C8010E94061003
:102B900088818C0D888389818D0D8983FF0C91F745
:102BA00096CFBE01C8010E94061091CFC8010E94B5
:102BB0001C10882309F463CFD8011696ED91FC917F
:102BC000179715968C918E0F9F2F911D11928E172E
:102BD0009F07E1F77CCF1882F80182818983858184
:102BE00081508A8383818B8372CFD80115968C9113
:102BF00088836DCFF8018181FBCF80917A00806955
:102C000080937A008EE480937C0061E070E080E045
:102C100090E00E94AB0F83B7817F826083BF80E129
:102C200030E020E093B7916093BF889593B79E7F83
:102C300093BF90917A0096FDFCCF4091780050911F
:102C40007900240F351F815069F780917A008F77C2
:102C500080937A0084E0369527958A95E1F750E0D5
:102C600040E064EB7BE281E190E00E94F62AC9013A
:102C7000089580917A00806980937A0088EC80932F
:102C80007C0064E170E080E090E00E94AB0F83B7CD
:102C9000817F826083BF80E270E060E093B79160E3
:102CA00093BF889593B79E7F93BF90917A0096FDCE
:102CB000FCCF2091780030917900620F731F815012
:102CC00069F780917A008F7780937A00769567957F
:102CD0007695679562527A4090E080E00E946B2C76
:102CE00026EF38E24CE151E40E94C32B0895909105
:102CF0007A00906990937A008E50806480937C0073
:102D000083B7817F826083BF20E290E080E033B7A9
:102D1000316033BF889533B73E7F33BF30917A003F
:102D200036FDFCCF4091780050917900840F951FBB
:102D3000215069F720917A002F7720937A0025E0BF
:102D4000969587952A95E1F708958FE00E9477166A
:102D5000A091A704B091A8049C010E94422B0E945C
:102D60006D2C28E539E743E353E40E94C32B0E940E
:102D70003C2CCB0108958091180590911905209164
:102D8000AA042223C1F021E08A30920751F09093E7
:102D90000D0180930C018AE091E0909319058093D6
:102DA000180587E990E190930B0180930A0186E171
:102DB00095E00C9437118A50914049F480910C01B0
:102DC00090910D019093190580931805F0CF089507
:102DD000880F991F9093900480938F04660F771F3C
:102DE00070938E0460938D048091A904882319F058
:102DF0005195419551095093920440939104220FAB
:102E0000331F3093B6042093B50408950F931F9396
:102E1000CF938091C401882399F0CFEF0FEE11E09A
:102E200061E085E00E94C40EC8010197F1F760E0FF
:102E300085E00E94C40EC8010197F1F7C15081F7E7
:102E4000CF911F910F910895CF92DF92EF92FF9251
:102E50000F931F93CF93DF93D82EC92E86E00E9445
:102E60009B0EC1E0892B09F0C0E00E94851181E42E
:102E7000E82E8EE0F82E8FE49EE00E94F80DF0928E
:102E80002C05E0922B050D2D1C2DD0E0F801419171
:102E900051918F016D2F80E00E94F212D05FD038E7
:102EA000A9F70E943D108111E6CFCC2369F086E09E
:102EB0000E949B0EC1E0892B39F06AE070E080E04F
:102EC00090E00E94AB0FC0E086E00E949B0E892B31
:102ED00061F7C111ECCFDF91CF911F910F91FF905E
:102EE000EF90DF90CF900C9406175F926F927F92D5
:102EF0008F929F92AF92BF92CF92DF92EF92FF920A
:102F00000F931F93CF93DF939090C304AA24A394AD
:102F1000911001C0A12C292D30E060917201615007
:102F2000770B41E050E090E080E00E94E81686E0F8
:102F30000E949B0EDD24D394892B09F0D12C01E44F
:102F40001EE046E0B42EC091B504D091B604D595EC
:102F5000C795CC2E7E01FF24C7018A0D911DA7FCC9
:102F60009A9589199109A12C97FD06C08330910586
:102F700014F082E090E0A82E0E9485118A2D0A2C80
:102F8000000C990B3C012FEF621A720A629420EF39
:102F900062225C2C5A18E81AF90A8FE49EE00E941B
:102FA000F80D10932C0500932B0584E790E00E9408
:102FB0001B1340E352E0662D80E00E94F212912C38
:102FC000812C712C852D870D739490917201891736
:102FD00080F4C701880D991DB89EA001B99E500DBF
:102FE000112445515E4F672D6295607F8CE00E94F1
:102FF000F2128FEF881A980A23E07212E3CF0E9430
:103000003D108111CACFDD2061F086E00E949B0E49
:10301000892B39F06AE070E080E090E00E94AB0F0D
:10302000D12C86E00E949B0E892BB1F4D11014C0E4
:103030000E940617C092C304DF91CF911F910F9198
:10304000FF90EF90DF90CF90BF90AF909F908F90C8
:103050007F906F905F9008959C2E75CF2F923F9236
:103060004F925F926F927F928F929F92AF92BF9298
:10307000CF92DF92EF92FF920F931F93CF93DF9344
:1030800000D000D0CDB7DEB77C01942EFC012080AB
:10309000318077247394411101C0712C70E07595D3
:1030A00067956A83292D30E06250710941E050E054
:1030B00090E080E00E94E81686E00E949B0E662465
:1030C0006394892B09F0612CCC24CA944FE7D42E49
:1030D00051E4A52E5EE0B52E8091B5049091B60422
:1030E000959587959C838B835B808C011127C80104
:1030F000870D911D77FC9A9589199109712C97FD7F
:1031000006C08330910514F082E090E0782E0E9492
:103110008511272D072C000C330BC9010196E82FD0
:10312000E295E07FE9832C9DC0012D9D900D3C9D93
:10313000900D1124080F191F000F111F8FE49EE03E
:103140000E94F80DB0922C05A0922B05F70140814A
:10315000518160E080E00E94F212F2E32F16F2E06B
:103160003F0661F44091C30486E0489FA00111240A
:1031700045515E4F60E086E30E94F21240E352E068
:10318000698180E00E94F21288248394912C412C62
:103190004394852D840D87199A81891778F4F40159
:1031A000EE0FFF1FE00FF11FEE0DFF1D408151815B
:1031B000642D6295607F8CE00E94F212EFEF8E1A10
:1031C0009E0AF3E04F12E4CF0E943D108111B6CF6A
:1031D000662061F086E00E949B0E892B39F06AE040
:1031E00070E080E090E00E94AB0F612C86E00E94CE
:1031F0009B0E892BE1F461101AC00E940617852DE1
:103200000F900F900F900F90DF91CF911F910F9122
:10321000FF90EF90DF90CF90BF90AF909F908F90F6
:103220007F906F905F904F903F902F9008959B807C
:1032300053CF3F924F925F926F927F928F929F9265
:10324000AF92BF92CF92DF92EF92FF920F931F93B4
:10325000CF93DF93CDB7DEB72E970FB6F894DEBFCE
:103260000FBECDBF8091CD04882309F4A5C1109273
:10327000D0041092D1041092D2041092D304809002
:10328000D0049090D104A090D204B090D304C09008
:10329000BE04D090BF04E090C004F090C104A70128
:1032A0009601C501B4010E94512B2B013C0120E085
:1032B00030E0A9010E941D2D18160CF0A0C1C30119
:1032C000B2010E943C2C8091AB04882309F4B8C160
:1032D000C0929304D0929404E0929504F0929604E4
:1032E000E12CF12C00EA10E420E030E040E450E46E
:1032F0006E31710540F0E12CF12C00E81FE320E075
:1033000030E040E05FE360E070E080E391E40E9441
:103310001A0D80911005882309F42AC10E94DD0F3F
:103320006D837E838F8398878091F8049091F90450
:10333000A091FA04B091FB044D815E816F81788584
:10334000481B590B6A0B7B0B809104059091050576
:10335000A0910605B0910705481759076A077B0732
:1033600008F406C1E091F204F091F30480819181A8
:10337000A281B38189839A83AB83BC83E091F604F5
:10338000F091F7049C01AD0160817181828193818C
:103390000E94512B4B015C012091000530910105E9
:1033A000409102055091030569817A818B819C814E
:1033B0000E94512B6B017C012091E6043091E704BF
:1033C0004091E8045091E904C501B4010E94222D06
:1033D0002091FC043091FD044091FE045091FF04C3
:1033E0000E94522B2B013C014092FC045092FD04A0
:1033F0006092FE047092FF043090110531101AC0E3
:103400002091E2043091E3044091E4045091E504FA
:10341000C701B6010E94222D9B01AC01C301B2017C
:103420000E94512B6093FC047093FD048093FE0472
:103430009093FF044090FC045090FD046090FE04C3
:103440007090FF0410910C0590910D059E87A0913E
:103450000E05AD8700910F05212F392F4A2F502FD0
:10346000C301B2010E941D2D18160CF0CCC0812F93
:103470009E85AD85B02F8093FC049093FD04A093AE
:10348000FE04B093FF04332009F4D6C02091E20477
:103490003091E3044091E4045091E504C501B40186
:1034A0000E94222D4B015C012091EA043091EB0433
:1034B0004091EC045091ED04C701B6010E94222D09
:1034C0009B01AC016091FC047091FD048091FE04AD
:1034D0009091FF040E94512BA50194010E94522B50
:1034E0006B017C019B01AC01612F7E858D85902F46
:1034F0000E94BE2B87FD18C0109108059091090508
:103500009E87A0910A05AD8700910B05212F392FC9
:103510004A2F502FB601C7010E94BE2B87FD04C061
:103520001C2DDE86ED860F2DE091F404F091F5045C
:10353000812F9E85AD85B02F80839183A283B38335
:1035400089819A81AB81BC818093000590930105AC
:10355000A0930205B09303058D819E81AF81B8854C
:103560008093F8049093F904A093FA04B093FB04B9
:103570006091C7047091C8048091C9049091CA04F5
:103580000E94352CCB012E960FB6F894DEBF0FBEED
:10359000CDBFDF91CF911F910F91FF90EF90DF9002
:1035A000CF90BF90AF909F908F907F906F905F90E3
:1035B0004F903F900C942E0F8091CC0460918A0123
:1035C00070918B0181110EC08091BC049091BD045B
:1035D0002091CB04BC01222329F060918501680F62
:1035E000792F711D90E080E00E946B2C6093D004D5
:1035F0007093D1048093D2049093D30440CEC3013E
:10360000B20190585ECE8091080590910905A09175
:103610000A05B0910B0589879A87AB87BC879C0107
:10362000AD01C301B2010E94BE2B87FF2CCF89855B
:103630009A85AB85BC851FCF812C912C540134CF4A
:1036400020E030E040E05FE3C701B6010E94522B6A
:103650009B01AC01C501B4010E941D2D18164CF44C
:103660001092C7041092C8041092C9041092CA04A0
:103670007FCF80E090E0AFE7B3E48093C7049093FE
:10368000C804A093C904B093CA0472CF4F925F924A
:103690006F927F928F929F92AF92BF92CF92DF9262
:1036A000EF92FF92CF93DF938090A3049090A404B5
:1036B000A090A504B090A604C091C304D0E0C501B9
:1036C000B4010E94352C6B017C0120E030E048E41D
:1036D00053E4C501B4010E94BE2B93E0CC0FDD1F63
:1036E0009A95E1F7CE5CDE4F87FF31C028813981A2
:1036F00050E040E02551310941095109C701B601A7
:103700000E94942D28EC30E040E050E00E94F62A20
:10371000CA01B9016B5E7F4F8F4F9F4F0E946D2C86
:103720006093BE047093BF048093C0049093C1045F
:10373000DF91CF91FF90EF90DF90CF90BF90AF904F
:103740009F908F907F906F905F904F9008954A80E8
:103750005B80712C612C20E030E04CE853E4C50123
:10376000B4010E94BE2B87FF1FC088809980B12CB6
:10377000A12CA7019601285C310941095109C30117
:10378000B201681979098A099B090E94942D20E5E4
:1037900030E040E050E00E94F62ACA01B901680D0D
:1037A000791D8A1D9B1DBACF2C813D8150E040E0E0
:1037B0002419350946095709C701B60168517140F6
:1037C000810991090E94942D20E530E040E050E00D
:1037D0000E94F62ACA01B901640D751D861D971D48
:1037E0009DCFDF92EF92FF920F931F93CF93DF93C2
:1037F000EC01D62E1CAD0BAD7C0184E0E80EF11C73
:10380000E98DFA8DC7010995412F480F2D2D602FA5
:10381000C7010E94DF119BAD890F8BAF81E090E063
:10382000DF91CF911F910F91FF90EF90DF9008955E
:103830000F931F93CF93DF938C01D0E0C0E0F8018A
:10384000EC0FFD1F6491662341F082E195E00E9438
:10385000F11B892B11F02196F2CFCE01DF91CF9190
:103860001F910F910895682F82E195E00C94F11B50
:103870007F928F929F92AF92BF92CF92DF92EF9200
:10388000FF920F931F93CF93DF93D0E0F12CE12CA5
:1038900036E0932E41E4C42E4EE0D42E50E3752E34
:1038A00060E2862E0E2D86E00E949B0E11E0892B91
:1038B00009F010E021E430E041E050E060E670E023
:1038C0008FE190E00E94E8168091B5049091B604D3
:1038D00095958795C82F8F31C1F52FE530E041E0F0
:1038E00050E060E670E08FE190E00E94E816CFE5DE
:1038F0000E9485118FE49EE00E94F80DD0922C0565
:10390000C0922B058FE790E00E941B13D0934D05CA
:1039100070924E058EE50E94331C10924D058092E8
:103920004E05B12CA12CA016F0F48091C304F50132
:10393000989EE00DF11D1124E551FE4F80810E94FB
:10394000331C8FEFA81AB80AEECF803689F620E232
:1039500030E041E050E060E670E08FE190E00E94EE
:10396000E816C0E2C5CFD0934D0580924E058C2F4E
:103970000E94331C0E943D108111BCCF112361F0C5
:1039800086E00E949B0E892B39F06AE070E080E0AF
:1039900090E00E94AB0F10E086E00E949B0E892B06
:1039A00009F092CF111190CF0091C304909E800135
:1039B000112405511E4FF801EE0DFF1DC0830E941A
:1039C00006176AE070E080E090E00E94AB0FEFEF36
:1039D000EE1AFE0AD75FDD3209F064CFF8011582D6
:1039E000DF91CF911F910F91FF90EF90DF90CF90DB
:1039F000BF90AF909F908F907F900895089590E032
:103A000080E00895FC0101900020E9F73197AF01B3
:103A1000481B590BBC0182E195E00C94450E8F9236
:103A20009F92AF92BF920F931F93CF93DF93CDB727
:103A3000DEB7A1970FB6F894DEBF0FBECDBF19A2B7
:103A4000423008F44AE08E010F5D1F4F842E912C06
:103A5000B12CA12CA50194010E94202BE62FB901C5
:103A6000CA01EA30F4F4E05DD801EE938D01232B16
:103A7000242B252B79F790E080E0109719F0CD01E9
:103A80000E94021DA1960FB6F894DEBF0FBECDBFF7
:103A9000DF91CF911F910F91BF90AF909F908F902A
:103AA0000895E95CE1CF4F925F926F927F928F927F
:103AB0009F92AF92BF92CF92DF92EF92FF920F93BD
:103AC0001F93CF936B017C01742EAC019B010E946C
:103AD0008F2D882399F087E392E0CF911F910F916A
:103AE000FF90EF90DF90CF90BF90AF909F908F901E
:103AF0007F906F905F904F900C94021D460157018C
:103B0000E894B7F82FEF3FEF4FE75FE7C501B40147
:103B10000E948F2D81110DC02FEF3FEF4FE75FE720
:103B2000C501B4010E94BE2B18161CF48BE392E071
:103B3000D4CF2FEF3FEF4FE75FE4C701B6010E94FC
:103B40001D2D18161CF48FE392E0C7CF2FEF3FEF27
:103B50004FE75FECC701B6010E94BE2B87FDF3CF94
:103B600020E030E0A901C701B6010E94BE2B10E0A1
:103B700000E087FF08C08DE20E94331C8C01F7FA39
:103B8000F094F7F8F094C0E060E070E080E09FE32C
:103B90007C1641F020E030E040E251E40E94C32B6B
:103BA000CF5FF6CFA70196010E94522B2B013C015B
:103BB0000E943C2C4B015C014AE00E940F1D7C01DD
:103BC000E00EF11ECC23B1F1C501B4010E946B2CB3
:103BD0009B01AC01C301B2010E94512B4B015C015E
:103BE0008EE20E94331CE80EF91EC15018F120E04D
:103BF00030E040E251E4C501B4010E94222D2B01C6
:103C00003C010E943C2C4B01B12CA12C4AE0C50187
:103C1000B4010E940F1DE80EF91EC501B4010E94F7
:103C20006B2C9B01AC01C301B2010E94512B4B01D3
:103C30005C01DBCFC701CF911F910F91FF90EF90F7
:103C4000DF90CF90BF90AF909F908F907F906F90BC
:103C50005F904F9008957F928F929F92AF92BF9204
:103C6000CF92DF92EF92FF920F931F93CF93DF9348
:103C70007C0186E00E949B0E11E0892B09F010E088
:103C800091E4C92E9EE0D92E00E22AE0722EC09166
:103C9000B504D091B604D595C7950E9485114E0103
:103CA000B12CA12C8FE49EE00E94F80DD0922C053F
:103CB000C0922B05F7014081518160E080E00E94B5
:103CC000F21210924D0500934E0580E392E00E949F
:103CD000021D70924D0500934E05209779F588E6F8
:103CE00090E00E94181C0E943D108111DBCF11232F
:103CF00061F086E00E949B0E892B39F06AE070E04B
:103D000080E090E00E94AB0F10E086E00E949B0EE6
:103D1000892B09F0BCCF1111BACF0E940617CE0132
:103D2000DF91CF911F910F91FF90EF90DF90CF9097
:103D3000BF90AF909F908F907F9008954AE0C5010B
:103D4000B4010E940F1D83E492E00E94021DF7015E
:103D500082819381009739F20E94021DC4CF1F9384
:103D6000CF93DF93EC01162F0E94E02A181739F049
:103D7000612FCE01DF91CF911F910C94E82ADF9142
:103D8000CF911F910895AF92BF92CF92DF92EF92A1
:103D9000FF920F931F93CF93DF936091910182E085
:103DA00090E00E94AF1E6091900183E090E00E943D
:103DB000AF1E60918B0184E090E00E94AF1E609185
:103DC0008A0185E090E00E94AF1E6091850186E047
:103DD00090E00E94AF1E6091E90187E090E00E94B0
:103DE000AF1E6091E80188E090E00E94AF1E6091F4
:103DF000E70189E090E00E94AF1E6091C6048AE06E
:103E000090E00E94AF1E6091AB048BE090E00E94B6
:103E1000AF1E6091C4018CE090E00E94AF1E6091E3
:103E2000AA048DE090E00E94AF1E6091A9048EE08C
:103E300090E00E94AF1E6091C3048FE090E00E946A
:103E4000AF1E6091720180E190E00E94AF1E81E19F
:103E5000E82EF12C10E006E0809172011817B8F5F9
:103E6000109F60011124D0E0C0E0FE01EC0DFD1DAB
:103E7000E551FE4F6081C7018C0F9D1F0E94AF1E50
:103E80002196C630D10589F7670186E0C80ED11C9E
:103E900088E0189FE0011124CE5CDE4F8EE0E80E32
:103EA000F11C69812296C6010E94AF1E560182E074
:103EB000A80EB11CFE0132976081C60101960E94D6
:103EC000AF1E6501AE14BF0461F71F5FC5CFDF9160
:103ED000CF911F910F91FF90EF90DF90CF90BF9007
:103EE000AF9008958F929F92AF92BF92CF92DF9240
:103EF000EF92FF92CF938FEF90E00E942E0F83ED11
:103F00009EE00197F1F78EE00E947716BC0190E0E9
:103F100080E00E946B2C4B015C018AE00E949B0EAA
:103F200090918C04981729F091E09093C2048093AB
:103F30008C04809109019FEF980F909309018111E2
:103F400006C00E94A5169093C5048093C404609196
:103F5000C7047091C8048091C9049091CA040E945A
:103F6000352CCB010E942E0FC090A304D090A40446
:103F7000E090A504F090A604A7019601C501B40144
:103F80000E94512B2DEC3CEC4CE45DE30E94222D71
:103F9000A70196010E94522B6093A3047093A4047E
:103FA0008093A5049093A6040E94461B6091CE04C2
:103FB0007091CF0490E080E00E946B2C4B015C017B
:103FC000C090D004D090D104E090D204F090D304FB
:103FD000A70196010E94BE2B811151C02091BE0401
:103FE0003091BF044091C0045091C104C501B40197
:103FF0000E94512B4B015C0120E030E0A9010E949E
:104000001D2D181694F520E030E040EA50E4C5017B
:10401000B4010E941D2D181694F16091CE04709188
:10402000CF0490E080E00E946B2CA70196010E94D3
:10403000512B4B015C0120E030E0A9010E941D2DB5
:10404000181664F520E030E040E85FE3C501B401F4
:104050000E94BE2B181664F1C701B6010E943C2CC9
:104060007093CF046093CE0423C020E030E040EA98
:1040700050ECC501B4010E94BE2B87FFCECF6091EA
:10408000BE047091BF048091C0049091C1040E944D
:104090003C2C7093CF046093CE04BFCF20E030E07F
:1040A00040E85FEBC501B4010E941D2D87FFD4CF0E
:1040B0006091BC047091BD0490E080E00E946B2C84
:1040C0002091BE043091BF044091C0045091C104BE
:1040D0000E94512B6B017C0120E030E0A9010E947D
:1040E0001D2D18160CF05DC0C701B6010E943C2CB6
:1040F0006530710508F059C080911B02811105C01F
:104100008091EA0181110E94061781E080931B02D1
:104110001092EA018091CE049091CF04853F21E076
:10412000920710F01092080120910801211140C05F
:10413000843F9140E8F58FEF90E00E942E0F0E949F
:104140000617C1E0C09308010E9475170E94C31EA4
:10415000C093C2048EE00E947716BC0190E080E01C
:104160000E946B2C6093A3047093A4048093A50415
:104170009093A6041092B4042091BC043091BD0425
:104180004AE050E060E971E086E990E0CF91FF906D
:10419000EF90DF90CF90BF90AF909F908F900C9456
:1041A000E816C701B6019058A1CF10921B02B2CFFA
:1041B000CF91FF90EF90DF90CF90BF90AF909F9006
:1041C0008F9008950C94E02A1F920F920FB60F92D1
:1041D00011242F933F938F939F93AF93BF9380911D
:1041E000980490919904A0919A04B0919B04309105
:1041F000970423E0230F2D3758F50196A11DB11D1B
:10420000209397048093980490939904A0939A0420
:10421000B0939B0480919C0490919D04A0919E0476
:10422000B0919F040196A11DB11D80939C049093B1
:104230009D04A0939E04B0939F04BF91AF919F9162
:104240008F913F912F910F900FBE0F901F90189557
:1042500026E8230F0296A11DB11DD2CF1F920F9207
:104260000FB60F9211242F933F934F935F936F9349
:104270007F938F939F93EF93FF9383B1817029B1C5
:104280009091A204981709F49DC030E0220F232FCB
:10429000221F330B922F8093A2044091A104241774
:1042A00009F490C02093A1042091910430919204CC
:1042B000981719F03195219531094091B504509125
:1042C000B60460918F0470919004240F351F261757
:1042D00037070CF48BC02091910430919204981709
:1042E00019F03195219531094091B5045091B604EA
:1042F00060918D0470918E04240F351F621773072F
:104300000CF46FC04091910450919204981719F0E9
:104310005195419551092091B5043091B604240F6F
:10432000351F3093B6042093B50441E0981340E064
:104330002091A004421709F440C0209191043091CB
:104340009204981719F03195219531096091B504BF
:104350007091B604E0918F04F0919004260F371FFE
:104360002E173F070CF44CC0209191043091920419
:10437000981719F03195219531096091B504709124
:10438000B604E0918D04F0918E04260F371FE217DA
:10439000F3078CF12091910430919204981719F051
:1043A0003195219531098091B5049091B604820F21
:1043B000931F9093B6048093B5044093A00481E0CA
:1043C0008093C204FF91EF919F918F917F916F91A4
:1043D0005F914F913F912F910F900FBE0F901F90C3
:1043E000189520918D0430918E049BCF20918F04DD
:1043F0003091900496CF80918D0490918E04D9CF06
:1044000080918F0490919004D4CF1895CF93DF932F
:10441000CDB7DEB729970FB6F894DEBF0FBECDBF7C
:10442000789484B5826084BD84B5816084BD85B58F
:10443000826085BD85B5816085BD80916E0081609B
:1044400080936E0010928100809181008260809341
:104450008100809181008160809381008091800043
:104460008160809380008091B10084608093B1006E
:104470008091B00081608093B00080917A00846068
:1044800080937A0080917A00826080937A00809194
:104490007A00816080937A0080917A0080688093AE
:1044A0007A001092C10060E08EE00E94F20E60E09F
:1044B0008FE00E94F20E61E085E00E94F20E61E062
:1044C00089E00E94F20E62E087E00E94F20E62E054
:1044D00088E00E94F20E62E086E00E94F20E62E046
:1044E0008AE00E94F20E8FEF90E00E942E0F60E0B3
:1044F00085E00E94C40E80917A00876080937A00E4
:1045000080917A00886080937A00789481E080932B
:104510006B00809368008BBB80912105883209F085
:10452000CAC08FEF8093360590E080E00E94E220C1
:10453000182F81E090E00E94E220912F8C36974E58
:1045400009F0C9C082E090E00E94E220182F83E0C9
:1045500090E00E94E220912F90939101809390012E
:1045600084E090E00E94E220182F85E090E00E9415
:10457000E220912F90938B0180938A0186E090E056
:104580000E94E2208093850187E090E00E94E22073
:104590008093E90188E090E00E94E2208093E801A6
:1045A00089E090E00E94E2208093E7018AE090E0B9
:1045B0000E94E2208093C6048BE090E00E94E220FB
:1045C00091E0811101C090E09093AB048CE090E009
:1045D0000E94E22091E0811101C090E09093C4011B
:1045E0008DE090E00E94E22091E0811101C090E016
:1045F0009093AA048EE090E00E94E22091E0811165
:1046000001C090E09093A9048FE090E00E94E22026
:104610008093C30480E190E00E94E220282E8093E2
:104620007201A2E38A2EA1E09A2EBBEEAB2EB1E07E
:10463000BB2E11E1E12EF12C312C231409F457C0CB
:1046400010E000E0C701800F911F0E94E220F501F9
:10465000E00FF11F80830F5F1F4F0630110591F7A8
:10466000670186E0C80ED11C9EE0E90EF11C340102
:10467000C6010E94E220082F10E0102F0027F3014E
:10468000118300832601F2E04F0E511CC6010196F2
:104690000E94E220082BF301019311933F01620174
:1046A0004E145F0429F73394F8E08F0E911C26E036
:1046B000A20EB11CC2CF823011F483E033CF81301F
:1046C00009F430CF803309F02FCF8FEF8093360578
:1046D0008093370529CF67EE90E080E00E94AF1EFF
:1046E0006CE681E090E00E94AF1E0E94C31E0E9413
:1046F000BB160E94FD159093A8048093A7040E9406
:10470000A5169093C5048093C40400919001109164
:1047100091011093BD040093BC048EE00E947716B3
:10472000BC0190E080E00E946B2C6093A304709326
:10473000A4048093A5049093A6040E9439160E94B5
:10474000461B20E030E040EA51E46091BE047091E5
:10475000BF048091C0049091C1040E94522B6B0150
:104760007C01B80190E080E00E946B2C9B01AC01C1
:10477000C701B6010E94BE2B87FF04C090E080E015
:104780000E942E0F109208051092090510920A053A
:1047900010920B05412C512CEFE76E2EE3E47E2E98
:1047A00040920C0550920D0560920E0570920F0517
:1047B000A090F404B090F50480911005F501C0803C
:1047C000D180E280F380882309F4D1C5A30192014E
:1047D000C701B6010E941D2D181634F5F50140825F
:1047E0005182628273828090FC049090FD04A090BC
:1047F000FE04B090FF04C0900C05D0900D05E09031
:104800000E05F0900F05A7019601C501B4010E94A5
:104810001D2D1816C4F4C092FC04D092FD04E09241
:10482000FE04F092FF041FC020E030E0A901C701A0
:10483000B6010E94BE2B87FFD6CFF50110821182F0
:1048400012821382D0CFC0900805D0900905E09065
:104850000A05F0900B05A7019601C501B4010E945D
:10486000BE2B87FDD8CF81E08093100583B1817086
:104870008093A20489B190E0880F892F881F990B3B
:104880008093A1042091A2049091A10481E02913B6
:1048900080E08093A00498014AE050E060E971E074
:1048A00086E990E00E94E8160E94DD0F6093B8044C
:1048B0007093B9048093BA049093BB040E940617C6
:1048C0000E9406172090B5043090B60435942794C2
:1048D0003092BD042092BC0486E00E949B0E898722
:1048E0008111B0C08091B404882309F4ABC00E9448
:1048F00006170E94DD0F4B015C018092B00490927C
:10490000B104A092B204B092B30486E00E949B0E60
:10491000892B59F40E94DD0F681979098A099B09CE
:10492000643F71408105910580F30E94DD0F681995
:1049300079098A099B09643F71408105910508F452
:10494000A9C48FEF90E00E942E0F0E94061710E07E
:10495000412F66E181ED91E00E942E18182F8930D9
:1049600008F05EC0E82FF0E0E854FB4D0C94A42D55
:104970000025DC2726286A28782882289028A02865
:10498000AE2820E030E0A901C701B6010E94BE2B8D
:1049900087FF69CF1092FC041092FD041092FE0470
:1049A0001092FF0460CF833009F49BC28430C1F5BC
:1049B00080917201883008F0FCC291E0980F9093CA
:1049C00072018093C3040E94381CE091C30428E064
:1049D000E29FF0011124EE5CFE4F88ED90E09183A0
:1049E000808384E391E09383828386E891E09583DA
:1049F00084838EE190E09783868302C00E947517BE
:104A0000412F6EE083E791E00E942E18182F82302C
:104A100009F464C240F6882389F3813009F441C166
:104A20000E94C31E81E08093C2043092BD04209294
:104A3000BC0491014AE050E060E971E086E990E051
:104A40000E94E81699859093B4048091CB04882342
:104A500009F11091E7011123E9F00E94DD0FC090E8
:104A6000AC04D090AD04E090AE04F090AF046C19AB
:104A70007D098E099F0928EE33E040E050E00E9456
:104A8000202B211738F01092CB040E94061781E0EA
:104A90008093EA018091C2048823E9F18091CC04DB
:104AA000882349F120E030E040EA51E46091BE04FF
:104AB0007091BF048091C0049091C1040E94522B58
:104AC0006B017C016091BC047091BD0490E080E0BA
:104AD0000E946B2C9B01AC01C701B6010E94BE2B4A
:104AE00087FF04C090E080E00E942E0F0E9406170E
:104AF00081E08093EA011092C2041092CC041092DB
:104B0000CD040E94DD0F6093B8047093B9048093C4
:104B1000BA049093BB040E94DD0F0091B804109179
:104B2000B9042091BA043091BB04601B710B820B55
:104B3000930B20E63AEE40E050E00E94202B122F2B
:104B40002093B7048091CC0481110BC08091E901BE
:104B5000882339F0281728F081E08093CC040E9444
:104B600006178091CD0481110BC08091E801882344
:104B700039F0181728F081E08093CD040E940617C1
:104B80000E94721F0E9419190E94851101E41EE003
:104B900088E2D82E93E5F92E2FE0C22E34E1B32E11
:104BA00044E3E42E56E0A52E65E2962E76E1872EAC
:104BB0008FE49EE00E94F80D10932C0500932B05C6
:104BC00040E552E060E080E00E94F212D0924D0594
:104BD00010924E056091D0047091D1048091D2045E
:104BE0009091D30440E00E94531DF0924D05109225
:104BF0004E058091CE049091CF04853F914008F4FA
:104C00005FC388EA91E00E94181C8091C604882343
:104C100009F488C36091C4047091C50490E080E0F9
:104C20000E946B2C20E030E04AE754E40E94C32B42
:104C30002B013C0110924D05E0924E058091C3047A
:104C40008A9DC001112485519E4F0E94021DF09241
:104C50004D05E0924E0541E0C301B2010E94531D93
:104C600082E891E00E94181C80EA9AE00E94F80D08
:104C700010932C0500932B0590924D0580924E05C4
:104C80006091CE047091CF048EE791E0653FF1E032
:104C90007F0708F05EC390E080E04AE00E940F1DAD
:104CA0005AC3CE0101967C01812C912C540183942E
:104CB000CC24C39450E1D52EE091C30494E0E99F45
:104CC000F0011124C4010197E80FF91FEE0FFF1F37
:104CD000EE5CFE4F208131813093BD042093BC04F3
:104CE00041E050E064EF71E084E690E00E94E81655
:104CF000C092EA0186E00E949B0E01E0892B09F038
:104D000000E00E94721F0E9419190E9485118FE411
:104D10009EE00E94F80DE1E4FEE0F0932C05E093A4
:104D20002B0587E491E00E941B1310924D05D09251
:104D30004E0580E491E00E94181C4AE0C501B401D0
:104D40000E940F1D85E492E00E94021D80911B02CB
:104D500010924D05882309F4A1C0F0E2F0934E05AE
:104D600083E391E00E94181C10924D0520E32093EC
:104D70004E058CE291E00E94181C8091B504909140
:104D8000B604959587952C01092E000C66087708C6
:104D900097FF80C08DE20E94331C66277727CB01E6
:104DA00064197509860997094AE00E940F1D0E943F
:104DB0003D108111ACCF002361F086E00E949B0E74
:104DC000892B39F06AE070E080E090E00E94AB0F40
:104DD00000E086E00E949B0E892B09F092CF011122
:104DE00090CF8091B5049091B60495958795F70181
:104DF000819391937F010E9406176AE070E080E042
:104E000090E00E94AB0FFFEF8F1A9F0AAF0ABF0A14
:104E100024E082169104A104B10409F04DCF8FEF74
:104E200090E00E942E0F83ED9EE00197F1F70E9423
:104E300039160E943C2C2B0178876F8389809A80D9
:104E4000CB80DC80C4010A968C159D0508F0D8CD76
:104E5000AD80BE80C6010A968A159B0508F0D0CDAC
:104E600040E066E086E191E00E942E18882309F474
:104E7000C7CDE091C30488E0E89FF0011124EE5C07
:104E8000FE4F91828082D382C282B582A4825782F1
:104E90004682B6CD4AE0C301B20187CF80E280935B
:104EA0004E0585E291E00E94181C6091A304709168
:104EB000A4048091A5049091A6040E943C2C90E04B
:104EC00080E04AE00E940F1D10924D0590E3909300
:104ED0004E0586E191E00E94181C69CF0E94381CA3
:104EE0008FCD80917201813029F48CE191E00E9494
:104EF000241786CD40E066E084E291E00E942E18FF
:104F0000882309F47DCD0091C304E0907201EE2D59
:104F1000E150FF0BBF01B6E0DB2E0E171F0639F480
:104F200001500093C304EA94E092720169CD802F8E
:104F300090E086179707BCF70D9DD001112450E033
:104F400040E09C012F5F3F4FFA01EA0FFB1FE55144
:104F5000FE4FC680C0824F5F5F4F46305105A1F7BC
:104F6000E3E0220F331FEA95E1F7F901EE5CFE4F13
:104F700020813181A3E0880F991FAA95E1F7DC0118
:104F8000AE5CBE4F11963C932E9382819381139613
:104F90009C938E9312978481958115969C938E9302
:104FA00014978681978117969C938E9316970F5F1F
:104FB000BECF8AE291E09BCF00E0402F6AE082E919
:104FC00091E00E942E18082F813059F1A8F082300C
:104FD00009F0BECC2091850130E04AE050E064E663
:104FE00070E08AE090E00E94E81681E891E00E947B
:104FF0002B1E80938501E1CF20919001309191018A
:105000004AE050E060E971E086E990E00E94E8162D
:105010008CE891E00E942B1E909391018093900167
:10502000CCCF20918A0130918B014AE050E068ECAE
:1050300070E084E190E00E94E81686E891E00E942A
:105040002B1E90938B0180938A01B7CF00E0402FF5
:105050006AE088EA91E00E942E18082F813041F121
:10506000A8F0823009F074CC2091E70130E04AE0EA
:1050700050E064EB70E090E080E00E94E8168CE97C
:1050800091E00E942B1E8093E701E1CF2091E9017E
:1050900030E041E050E06EE170E090E080E00E949E
:1050A000E81684EA91E00E942B1E8093E901CFCF9D
:1050B0002091E80130E045E050E06CE370E090E0E2
:1050C00080E00E94E81680EA91E00E942B1E809307
:1050D000E801BDCF4091AB0466E08BEC91E00E940B
:1050E0002E1891E0811101C090E09093AB0430CC78
:1050F0004091C60466E085EC91E00E942E188093F2
:10510000C60426CC4091C40166E08EEB91E00E947B
:105110002E1891E0811101C090E09093C40118CC49
:105120004091AA0466E088EB91E00E942E1891E07D
:10513000811101C090E09093AA040E94BB1608CC94
:105140004091A90466E082EB91E00E942E1891E064
:10515000811101C090E09093A904FACB86E00E94EF
:105160009B0E01E0892B09F000E00E94FD15909351
:10517000A8048093A704BC0190E080E00E946B2CFF
:1051800020E030E04AE754E40E94C32B6B017C012D
:105190000E94A5169093C5048093C404BC0190E0BE
:1051A00080E00E946B2C20E030E04AE754E40E944B
:1051B000C32B4B015C010E9439162B013C010E945C
:1051C00085118FE49EE00E94F80DE1E4FEE0F0938B
:1051D0002C05E0932B0510924D0510924E058FE69D
:1051E00091E00E94181C8BE492E00E94021D109234
:1051F0004D05F0E1F0934E0589E691E00E94181C00
:1052000041E0C301B2010E94531D86E691E00E9475
:10521000181C10924D0520E220934E0580E691E087
:105220000E94181C41E0C501B4010E94531D8DE588
:1052300091E00E94181C10924D0580E380934E056A
:1052400086E591E00E94181C41E0C701B6010E946A
:10525000531D83E591E00E94181C0E943D108111AE
:10526000B0CF002361F086E00E949B0E892B39F0BD
:105270006AE070E080E090E00E94AB0F00E086E022
:105280000E949B0E892B09F070CF01116ECF0E94F6
:1052900006175ECB8091CB0491E089278093CB04E5
:1052A000882351F00E94DD0F6093AC047093AD042D
:1052B0008093AE049093AF0481E08093C204C2CB8C
:1052C0008091CD04882319F082EA91E09CCC8091F2
:1052D000CC04882319F08CE991E095CC8091CB0423
:1052E000882319F086E991E08ECC80911B028823F7
:1052F00019F080E991E087CC20E030E044E353E40A
:105300006091C7047091C8048091C9049091CA0447
:105310000E94BE2B87FF03C08AE891E074CC84E82A
:1053200091E071CC82EC91E00E94F80D10932C0575
:1053300000932B05C0924D05B0924E056091CE04AE
:105340007091CF04653F21E0720708F4A4CC8AE78E
:1053500091E00E94181C0E943D10811129CC80E030
:1053600090E0892B09F4AECA0E940000ABCAC0923B
:10537000FC04D092FD04E092FE04F092FF04E09160
:10538000F204F091F30480819181A281B381809332
:10539000000590930105A0930205B093030520E05A
:1053A00030E04FE753E4C701B6010E941D2D1816E7
:1053B0000CF0E7CA4092FC045092FD046092FE0497
:1053C0007092FF0450CA0F931F93CF9387EC94E021
:1053D0009093F5048093F40483E994E09093F304AC
:1053E0008093F20480ED94E09093F7048093F604A8
:1053F00010921005109208051092090510920A05E6
:1054000010920B0580E090E0AFE7B3E480930C05C9
:1054100090930D05A0930E05B0930F0584E690E0E0
:10542000A0E0B0E08093040590930505A0930605E5
:10543000B093070581E090E09093EF048093EE0431
:105440009093F1048093F004C1E0C093110580E0D3
:1054500090E0A0E3B1E48093D6049093D704A093A6
:10546000D804B093D90480E090E0A0E0BFE380933B
:10547000DA049093DB04A093DC04B093DD0480E0B5
:1054800090E0A0E8BFE38093DE049093DF04A09354
:10549000E004B093E10480E090E0A0E3B1EC8093FD
:1054A000E2049093E304A093E404B093E5048DEC4C
:1054B0009CECACE4BDEB8093E6049093E704A093EE
:1054C000E804B093E90480E090E0A0E2B1EC8093BE
:1054D000EA049093EB04A093EC04B093ED040E94D3
:1054E000DD0F00910405109105052091060530910E
:1054F0000705601B710B820B930B6093F80470938C
:10550000F9048093FA049093FB041092150510920D
:10551000140580E292E09093130580931205109297
:105520004D0510924E0510924F0510921B051092DA
:105530001A0510921D0510921C0510921F05C093AC
:105540001E0582E280932005109225051092240505
:10555000E9E3F5E087E495E02FEF21938E179F07AD
:10556000E1F781E08093360526EF3DE030932C058E
:1055700020932B0580932D0510922E0510922F0558
:1055800080E4809330051092310589EE9FE090937E
:1055900048058093470580E191E090931905809339
:1055A000180582E1809344050E94591180E292E03F
:1055B0009093130580931205CF911F910F91089539
:1055C000F999FECF92BD81BDF89A992780B50895CB
:1055D000262FF999FECF1FBA92BD81BD20BD0FB60F
:1055E000F894FA9AF99A0FBE01960895052E97FB42
:1055F0001EF400940E940D2B57FD07D00E94202B13
:1056000007FC03D04EF40C940D2B5095409530952B
:1056100021953F4F4F4F5F4F08959095809570951E
:1056200061957F4F8F4F9F4F08950E94422BA59FFA
:10563000900DB49F900DA49F800D911D112408958D
:10564000A1E21A2EAA1BBB1BFD010DC0AA1FBB1F86
:10565000EE1FFF1FA217B307E407F50720F0A21BF8
:10566000B30BE40BF50B661F771F881F991F1A9465
:1056700069F760957095809590959B01AC01BD018F
:10568000CF010895A29FB001B39FC001A39F700DE9
:10569000811D1124911DB29F700D811D1124911D3A
:1056A00008955058BB27AA270E94692B0C94E32C1D
:1056B0000E94D52C38F00E94DC2C20F039F49F3F5A
:1056C00019F426F40C94D22C0EF4E095E7FB0C941C
:1056D000CC2CE92F0E94F42C58F3BA1762077307F9
:1056E0008407950720F079F4A6F50C94162D0EF496
:1056F000E0950B2EBA2FA02D0B01B90190010C01E2
:10570000CA01A0011124FF27591B99F0593F50F4F9
:10571000503E68F11A16F040A22F232F342F442751
:10572000585FF3CF469537952795A795F040539549
:10573000C9F77EF41F16BA0B620B730B840BBAF019
:105740009150A1F0FF0FBB1F661F771F881FC2F784
:105750000EC0BA0F621F731F841F48F48795779598
:105760006795B795F7959E3F08F0B0CF9395880F52
:1057700008F09927EE0F9795879508950E94A82C19
:1057800008F481E008950E94D72B0C94E32C0E942A
:10579000DC2C58F00E94D52C40F029F45F3F29F012
:1057A0000C94CC2C51110C94172D0C94D22C0E94DB
:1057B000F42C68F39923B1F3552391F3951B550B02
:1057C000BB27AA2762177307840738F09F5F5F4FD4
:1057D000220F331F441FAA1FA9F335D00E2E3AF013
:1057E000E0E832D091505040E695001CCAF72BD02B
:1057F000FE2F29D0660F771F881FBB1F261737077C
:105800004807AB07B0E809F0BB0B802DBF01FF27AD
:1058100093585F4F3AF09E3F510578F00C94CC2C92
:105820000C94172D5F3FE4F3983ED4F3869577955B
:105830006795B795F7959F5FC9F7880F911D969566
:10584000879597F90895E1E0660F771F881FBB1FC2
:10585000621773078407BA0720F0621B730B840B6F
:10586000BA0BEE1F88F7E09508950E943C2C6894CF
:10587000B1110C94172D08950E94FC2C88F09F57AD
:1058800098F0B92F9927B751B0F0E1F0660F771F64
:10589000881F991F1AF0BA95C9F714C0B13091F05A
:1058A0000E94162DB1E008950C94162D672F782FC5
:1058B0008827B85F39F0B93FCCF38695779567951F
:1058C000B395D9F73EF490958095709561957F4F8B
:1058D0008F4F9F4F0895E89409C097FB3EF4909531
:1058E0008095709561957F4F8F4F9F4F9923A9F0B9
:1058F000F92F96E9BB279395F69587957795679548
:10590000B795F111F8CFFAF4BB0F11F460FF1BC08B
:105910006F5F7F4F8F4F9F4F16C0882311F096E91E
:1059200011C0772321F09EE8872F762F05C06623CC
:1059300071F096E8862F70E060E02AF09A95660F85
:10594000771F881FDAF7880F9695879597F908953E
:10595000990F0008550FAA0BE0E8FEEF1616170680
:10596000E807F907C0F012161306E407F50798F0E8
:10597000621B730B840B950B39F40A2661F0232B01
:10598000242B252B21F408950A2609F4A140A6957D
:105990008FEF811D811D089597F99F6780E870E062
:1059A00060E008959FEF80EC089500240A94161695
:1059B000170618060906089500240A9412161306FD
:1059C000140605060895092E0394000C11F488238B
:1059D00052F0BB0F40F4BF2B11F460FF04C06F5FA7
:1059E0007F4F8F4F9F4F089557FD9058440F551F7D
:1059F00059F05F3F71F04795880F97FB991F61F051
:105A00009F3F79F087950895121613061406551FC7
:105A1000F2CF4695F1DF08C0161617061806991F33
:105A2000F1CF86957105610508940895E894BB2728
:105A300066277727CB0197F908950E94A82C08F4D0
:105A40008FEF08950E94352D0C94E32C0E94D52CE5
:105A500038F00E94DC2C20F0952311F00C94CC2C13
:105A60000C94D22C11240C94172D0E94F42C70F35A
:105A7000959FC1F3950F50E0551F629FF001729FF3
:105A8000BB27F00DB11D639FAA27F00DB11DAA1F02
:105A9000649F6627B00DA11D661F829F2227B00D4F
:105AA000A11D621F739FB00DA11D621F839FA00DDA
:105AB000611D221F749F3327A00D611D231F849F2A
:105AC000600D211D822F762F6A2F11249F57504081
:105AD0009AF0F1F088234AF0EE0FFF1FBB1F661FFC
